:100000000C94BB000C94550E0C942E0E0C94E30033
:100010000C94E3000C94E3000C94E3000C94300D7A
:100020000C94E3000C94E3000C94E3000C947C0E1D
:100030000C94E3000C94E3000C94E3000C94E300B4
:100040000C94E40D0C94E3000C94B20D0C948C0D04
:100050000C94E3000C94E3000C94E3000C94E30094
:100060000C94E3000C94E30007634236B79BD8A7D7
:100070001A39685618AEBAAB558C1D3CB7CC5763CD
:10008000BD6DEDFD753EF6177231BF000000803F7B
:1000900008000000BE922449123EABAAAA2ABECD97
:1000A000CCCC4C3E00000080BEABAAAAAA3E000009
:1000B0000000BF000000803F000000000008417801
:1000C000D3BB4387D1133D190E3CC3BD4282AD2B38
:1000D0003E68EC8276BED98FE1A93E4C80EFFFBE30
:1000E00001C4FF7F3F000000000000000008000284
:1000F00001000003040700000000000000000200EF
:10010000000000250028002B00000000002400272C
:10011000002A00040404040404040402020202028B
:1001200002030303030303010204081020408001BB
:1001300002040810200102040810205E01011F01C2
:10014000030301008A02010A010202010064001E89
:1001500047040B0906007C0101060103030100F4BA
:1001600001060E0102020100C20117010102020193
:100170000100380F521411241FBECFEFD4E0DEBFB0
:10018000CDBF11E0A0E0B1E0E6E8F7E302C00590E2
:100190000D92AA37B107D9F723E0AAE7B1E001C071
:1001A0001D92A133B207E1F710E0CAEBD0E004C022
:1001B0002197FE010E94B519C93BD107C9F70E94DA
:1001C000DD0F0C94B61B0C94000090E0FC01E95D7F
:1001D000FE4F24918D5E9E4FFC018491882399F0FF
:1001E00090E0880F991FFC01E75FFE4FA591B49145
:1001F000FC01E150FF4F859194918FB7F894EC91F9
:10020000E22BEC938FBF08958091FD028C3008F0B3
:1002100050C089E00E94E5008091FD02282F30E067
:10022000F901EE0FFF1FE20FF31FEC52FD4F90811B
:10023000907C996090831092FE021092FF022CE055
:10024000622F0E948119829FB001112430E020E0CA
:10025000AB01420F531FFA01EE0FFF1FE40FF51F12
:10026000EC52FD4F908196FD16C02F5F3F4F2C3012
:10027000310571F781110FC01092800082E08093E8
:1002800081001092850010928400B19A80916F00D5
:10029000826080936F00E091FD028E2F90E0FC0160
:1002A000EE0FFF1FE80FF91FEC52FD4F80818064B5
:1002B00080838091FD02089580911C0390911D031D
:1002C000892B31F08091180390911903009721F444
:1002D0001092360286E392E0089508954F925F925D
:1002E0006F927F928F929F92AF92BF92CF92DF9246
:1002F000EF92FF920F931F93CF93DF9300D000D024
:100300001F92CDB7DEB78C012A013B018091060117
:100310008A30C9F08F3F09F47EC00F900F900F9084
:100320000F900F90DF91CF911F910F91FF90EF9061
:10033000DF90CF90BF90AF909F908F907F906F9005
:100340005F904F900895EEEFF0E084918D8387FDEC
:10035000E4CF8AE00E94E5008D81882321F09D8111
:10036000923009F05BC14801B12CA12C60E072E130
:100370008AE790E0A50198010E944D1629833A83EF
:100380004B835C8369017A0181E0C81AD108E108D6
:10039000F1089FEFC916D104E104F10409F00CF44F
:1003A00012C160E472E48FE090E0A50198010E9420
:1003B0004D1669017A0181E0C81AD108E108F108F7
:1003C0009D81923009F097C08FEFC816D104E104E7
:1003D000F10409F00CF4DCC160E970ED83E090E019
:1003E000A50198010E944D1669017A0191E0C91A90
:1003F000D108E108F1088FEFC816D104E104F10437
:1004000011F00CF0A2C183E09091B100987F892B8C
:100410008093B100E0C08AE080930601EEEFF0E047
:1004200094919D839F3F09F478CF913021F150F052
:10043000923009F43EC08D8187FD6FCF8AE00E9423
:10044000E5008DCF14BC15BC84B5826084BD85B534
:10045000816085BDEDE1F1E0E491F0E0EE0FFF1F7A
:10046000E150FF4F85919491E1E3F1E0E491E09355
:1004700029021D826ECF109280001092810080911F
:1004800081008860809381008091810081608093E9
:100490008100EDE1F1E0E491F0E0EE0FFF1FE150AB
:1004A000FF4F85919491E1E3F1E0E491E09328021C
:1004B00050CF1092B0001092B1008091B0008260D5
:1004C0008093B0008091B10081608093B100EDE134
:1004D000F1E0E491F0E0EE0FFF1FE150FF4F859156
:1004E00094919093270280932602E1E3F1E0E49156
:1004F000E09325022ECF9FEFC916D104E104F10449
:1005000009F00CF489C068E478EE81E090E0A50180
:1005100098010E944D1669017A0181E0C81AD1083C
:10052000E108F1089D81992309F428C19FEFC916BC
:10053000D104E104F10409F00CF41EC162E17AE790
:1005400080E090E0A50194010E944D1669017A01B6
:1005500081E0C81AD108E108F1089D81992309F4C6
:10056000EBC08FEFC816D104E104F10411F008F0DC
:10057000BFC086E049CF64E274EF80E090E0A5015F
:1005800094010E944D1669017A0181E0C81AD108D0
:10059000E108F10885E09FEFC916D104E104F104F8
:1005A00009F008F431CF62E17AE780E090E0A5013C
:1005B00094010E944D1669017A0191E0C91AD1088F
:1005C000E108F108CECF81E09D8191111DCF95B555
:1005D000987F892B85BD2FEF3FEFA901411451046E
:1005E0006104710409F043C09D81913009F45EC03B
:1005F000923009F46DC0911190CEC7BC20933202A5
:1006000030933302409334025093350280916E0050
:10061000826080936E0081CE82E0D6CFB12CA12C77
:1006200060E072E18AE790E0A50198010E944D1612
:1006300069017A0181E0C81AD108E108F108C11402
:10064000D10491E0E906F10404F591E08D81813057
:1006500011F680918100887F892B809381002FEF94
:100660003FEFA9014114510461047104F9F0D8016C
:10067000AA0FBB1FA30192010E946C1628EE33E063
:1006800040E050E00E94B616AFCF68E478EE81E01B
:1006900090E0A50198010E944D1669017A0181E060
:1006A000C81AD108E108F10893E0D0CFD0928900B0
:1006B000C092880020932E0230932F024093300284
:1006C0005093310280916F00826080936F0025CE3D
:1006D000C092B30020932A0230932B0240932C0245
:1006E00050932D028091700082608093700015CE2F
:1006F000C980DA80EB80FC809AE0F594E794D79487
:10070000C7949A95D1F791E0C91AD108E108F10888
:1007100087E07ACEC980DA80EB80FC808AE0F594AD
:10072000E794D794C7948A95D1F791E0C91AD10874
:10073000E108F10885E04BCF8FEFC816D104E10442
:10074000F10409F038F784E042CF68E478EE81E004
:1007500090E0A50198010E944D1669017A0191E08F
:10076000C91AD108E108F1088FEFC816D104E104D5
:10077000F10411F00CF0FFCE84E046CE8FEFC816E6
:10078000D104E104F10411F00CF0D8CE83E01FCFC6
:1007900082E03ACECF92DF92EF92FF92DC01A0325C
:1007A00082E0B807D4F5A53BB10514F0A4EBB0E0A6
:1007B0004091FE0228E830E0241B310947FD3395C3
:1007C000220F331F220F331F6901330FEE08FF087A
:1007D0004091FF0228E532E0241B310947FD3395A3
:1007E000220F331F220F331F032E000C440B550B17
:1007F0002C193D094E095F09B7FF02C0B0E0A0E027
:100800000E94771624EB30E040E050E00E944D1645
:10081000C20ED31EE41EF51ED601E091FD02EC309F
:1008200080F52091FE0288E890E0821B910927FD67
:100830009395880F991F880F991FA817B90784F0FF
:100840002091FF0288E592E0821B910927FD939594
:10085000880F991F880F991FA817B9070CF4CD01AD
:100860000297880F991F4FB7F8942E2F30E0F901A7
:10087000EE0FFF1FE20FF31FEC52FD4F92838183B7
:100880004FBFFF90EF90DF90CF900895AF92BF924F
:10089000CF92DF92EF92FF920F931F93CF93DF934C
:1008A0006C017B018B01040F151FEB015E01AE187B
:1008B000BF08C017D10759F06991D601ED91FC919D
:1008C0000190F081E02DC6010995892B79F7C501CA
:1008D000DF91CF911F910F91FF90EF90DF90CF901C
:1008E000BF90AF900895FC01538D448D252F30E0CB
:1008F000842F90E0821B930B541710F0CF9608952D
:1009000001970895FC01918D828D981761F0A28D59
:10091000AE0FBF2FB11D5D968C91928D9F5F9F731F
:10092000928F90E008958FEF9FEF08952FB7F8947E
:100930008091210290912202A0912302B091240281
:100940002FBF80933F0290934002A0934102B09347
:10095000420287E392E00E94820497FF26C02FB7ED
:10096000F8948091210290912202A0912302B091EB
:1009700024022FBF40913F025091400260914102FA
:1009800070914202841B950BA60BB70B40913B0262
:1009900050913C0260913D0270913E028417950790
:1009A000A607B707B0F28FEF9FEF0895FC01918D76
:1009B000828D981731F0828DE80FF11D858D90E0C2
:1009C00008958FEF9FEF0895FC01918D228D892F5F
:1009D00090E0805C9F4F821B91098F739927089547
:1009E00087E392E00E94E40421E0892B09F420E0EF
:1009F000822F089580E090E0892B29F00E94F00476
:100A000081110C9400000895FC01A48DA80FB92F4A
:100A1000B11DA35ABF4F2C91848D90E001968F7326
:100A20009927848FA689B7892C93A089B1898C9145
:100A3000837080648C93938D848D981306C0028894
:100A4000F389E02D80818F7D80830895EF92FF925E
:100A50000F931F93CF93DF93EC0181E0888F9B8DE1
:100A60008C8D98131AC0E889F989808185FF15C09B
:100A70009FB7F894EE89FF896083E889F9898081BE
:100A80008370806480839FBF81E090E0DF91CF918D
:100A90001F910F91FF90EF900895F62E0B8D10E0AF
:100AA0000F5F1F4F0F731127E02E8C8D8E110CC01E
:100AB0000FB607FCFACFE889F989808185FFF5CF69
:100AC000CE010E940405F1CFEB8DEC0FFD2FF11D3F
:100AD000E35AFF4FF0829FB7F8940B8FEA89FB89A6
:100AE00080818062CFCFCF93DF93EC01888D882304
:100AF000B9F0AA89BB89E889F9898C9185FD03C081
:100B0000808186FD0DC00FB607FCF7CF8C9185FF65
:100B1000F2CF808185FFEDCFCE010E940405E9CFA1
:100B2000DF91CF91089590E0FC01E651FF4F2491B1
:100B3000FC01E95DFE4F3491FC01ED5EFE4FE49156
:100B4000EE23C9F0222339F0233001F1A8F421303B
:100B500019F1223029F1F0E0EE0FFF1FE150FF4FB5
:100B6000A591B4918FB7F894EC91611126C030959E
:100B70003E233C938FBF08952730A9F02830C9F059
:100B8000243049F7809180008F7D03C080918000E0
:100B90008F7780938000DFCF84B58F7784BDDBCFE4
:100BA00084B58F7DFBCF8091B0008F778093B000AC
:100BB000D2CF8091B0008F7DF9CF3E2BDACF9091CC
:100BC000060189130BC0EEEFF0E0E4919FEF9093E4
:100BD0000601E13049F028F0E23061F060E00C9469
:100BE000930510926E00FACF90916F009D7F9093C5
:100BF0006F00F4CF909170009D7F9093700091E012
:100C00009093B0009091B100987F94609093B10060
:100C10001092B300E3CF3FB7F894809118029091FF
:100C20001902A0911A02B0911B0226B5A89B05C01B
:100C30002F3F19F00196A11DB11D3FBFBA2FA92F5B
:100C4000982F8827BC01CD01620F711D811D911D58
:100C500042E0660F771F881F991F4A95D1F70895C4
:100C60008F929F92AF92BF92CF92DF92EF92FF92BC
:100C70006B017C010E940B064B015C01C114D10485
:100C8000E104F104B9F00E940B06681979098A0998
:100C90009B09683E73408105910580F321E0C21AEB
:100CA000D108E108F10888EE880E83E0981EA11CA7
:100CB000B11CE4CFFF90EF90DF90CF90BF90AF904A
:100CC0009F908F900895089560E08DE00E949305B5
:100CD00060E088E00C94930561E08DE00E9493054C
:100CE00061E088E00C9493052F923F924F925F92BF
:100CF0006F927F928F929F92AF92BF92CF92DF922C
:100D0000EF92FF920F931F93CF93DF93CDB7DEB790
:100D100065970FB6F894DEBF0FBECDBF0E940B06DD
:100D20006B017C0180911202909113022601481AF6
:100D3000590A2DEC421620E1520608F4DEC08091DB
:100D40008C0190918D01A201481B590BCA0157FFDC
:100D500003C0919581959109883C91050CF0C9C01B
:100D600080918A0190918B01019690938B018093E1
:100D70008A01029709F0BDC09BE3692E91E0792EAC
:100D800001E010E020908801309089013B862A869E
:100D900049E050E0B301CE0101960E940A158B8113
:100DA0006C81681708F4682F70E080918C01909135
:100DB0008D010E948D199B014091070150910801FE
:100DC000649FC001659F900D749F900D112464E68F
:100DD00070E00E948D198985A1E0B0E0882311F0B0
:100DE000A2E0B0E08D81829FA001839F500D11246D
:100DF0005D874C878E81829F1001839F300C112468
:100E00003F862E868F81829FA001839F500D1124E3
:100E1000598B488B8885829F1001839F300C112449
:100E20003B8A2A8AFD01EE0FFF1FE457FE4F812CFB
:100E3000912C54014A855B85415051095D8B4C8B47
:100E40008C899D89A817B90708F040C0880C991CA7
:100E5000AA1CBB1C80819181AC012C843D84421969
:100E6000530957FF03C0519541955109461757073C
:100E700070F4428153812E843F844219530957FFF5
:100E800003C051954195510946175707E0F048892D
:100E90005989841B950B97FF03C091958195910902
:100EA00086179707C8F4828193812A883B88821924
:100EB000930997FF03C0919581959109861797072C
:100EC00058F4689480F812963496BACF4A855B85B8
:100ED0004830510508F053C00F5F1F4F59E0650EB1
:100EE000711C0730110509F04DCF10928B01109243
:100EF0008A01109289011092880180918801909155
:100F000089018334910540F0109289011092880183
:100F100010928B0110928A01809188019091890131
:100F20009C012F5F3F4F3093890120938801880FE8
:100F3000991FFC01E457FE4F51824082C092120279
:100F4000D0921302E0921402F092150265960FB649
:100F5000F894DEBF0FBECDBFDF91CF911F910F91EF
:100F6000FF90EF90DF90CF90BF90AF909F908F90C9
:100F70007F906F905F904F903F902F900895809258
:100F8000F9029092FA02A092FB02B092FC022C8825
:100F90003D883694279430921D0220921C02309393
:100FA00087012093860110938501009384019DCFD2
:100FB000FC0101900020E9F73197AF01481B590B64
:100FC000BC0187E392E00C944604CF93DF93EC01DD
:100FD00080911803909119030097E9F06881798155
:100FE00061157105B1F040911A0350911B032C81DA
:100FF0003D814217530768F00E94AF1B8C819D8191
:1010000090931D0380931C031D821C82DF91CF915E
:1010100008950E94571A88819981909319038093AB
:1010200018038A819B8190931B0380931A038C8100
:101030009D8190931D0380931C03198218821B824B
:101040001A82E2CFCF93DF93EC01888199810097D8
:1010500011F00E94571A198218821D821C821B826D
:101060001A82DF91CF910895FC01808191810097D0
:1010700011F00C94571A08950F931F93CF93DF9399
:10108000EC0188819981009759F02A813B812617CC
:10109000370730F081E0DF91CF911F910F910895D4
:1010A0008B016F5F7F4F0E94E01A009759F0998380
:1010B00088831B830A832C813D81232B59F7FC01F4
:1010C0001082E8CF80E0E7CFEF92FF920F931F935B
:1010D000CF93DF93EC017B018A01BA010E943C08A7
:1010E00081110BC0CE010E942208CE01DF91CF9169
:1010F0001F910F91FF90EF9008951D830C83B7010E
:10110000888199810E94AF1BF0CFFB0101900020E4
:10111000E9F73197AF01461B570B0C946408FC01AB
:10112000118210821382128215821482FB010190B7
:101130000020E9F73197AF01461B570B0C94640868
:10114000CF92DF92EF92FF920F931F93CF93DF9393
:101150006C017B018A014617570720F48F2D7A0115
:10116000062F182F62E771E0C6010E948F08C09118
:101170001C03D0911D03EC16FD06F8F40C171D0797
:1011800008F4E801E0911803F0911903EC0FFD1F3A
:101190001081108260911803709119036E0D7F1DEC
:1011A000C6016115710599F00E94850880911803A8
:1011B00090911903C80FD91F1883C601DF91CF91F1
:1011C0001F910F91FF90EF90DF90CF9008950E94B4
:1011D0002208ECCFCF92DF92EF92FF92CF93DF9372
:1011E00000D000D000D0CDB7DEB740911C035091A5
:1011F0001D03682F70E0CE0101960E94A008CE0169
:1012000001960E94E507CE0101960E9434080E94D3
:101210005C01DC01EC91E03239F440911C03509107
:101220001D0361E070E0E7CF80ED8E0FC12CD12C63
:1012300076018A3048F5AAE0B0E0A70196010E9445
:101240006C16E053FF0B6F01FF0FEE08FF08C60E90
:10125000D71EE81EF91E40911C0350911D0361E04A
:1012600070E0CE0101960E94A008CE0101960E9476
:10127000E507CE0101960E9434080E945C01DC0162
:10128000EC9180ED8E0FD5CFC701B60126960FB633
:10129000F894DEBF0FBECDBFDF91CF91FF90EF90EE
:1012A000DF90CF900895CF92DF92EF92FF926B0183
:1012B0007C01C114D104E104F10441F00E94B21494
:1012C000A70196010E944D166B017C01C701B60172
:1012D000FF90EF90DF90CF9008954F925F926F92C2
:1012E0007F928F929F92AF92BF92CF92DF92EF92B6
:1012F000FF92CF93DF9368EE73E080E090E00E946E
:1013000053096B017C0128EEC20E23E0D21EE11CC2
:10131000F11C0E946C06812C912C5401D0E0C0E09D
:10132000240135016CE677E080E090E00E945309EB
:101330002FEF821A920AA20AB20A6C597F4F8F4F7E
:101340009F4F6415750586059705A4F0CE01880F9B
:10135000991F8C0D9D1D40E050E0BA010E946E0166
:1013600062E070E080E090E00E9453090E94300645
:101370002196D6CF0E946406812C912C5401240121
:10138000350164E873E080E090E00E9453092FEF9C
:10139000821A920AA20AB20A6C597F4F8F4F9F4F4E
:1013A000641575058605970594F040E050E0BA0194
:1013B000C6010E946E0162E070E080E090E00E9451
:1013C00053090E9430068AE0C81AD108D8CFDF91AD
:1013D000CF91FF90EF90DF90CF90BF90AF909F9014
:1013E0008F907F906F905F904F9008954F925F9293
:1013F0006F927F928F929F92AF92BF92CF92DF9225
:10140000EF92FF92CF93DF9368EE73E080E090E07D
:101410000E9453096B017C0128EEC20E23E0D21E0C
:10142000E11CF11C0E946C06812C912C5401D0E02F
:10143000C0E0240135016CE677E080E090E00E9496
:1014400053093FEF831A930AA30AB30A6C597F4FDB
:101450008F4F9F4F6415750586059705B4F0CE0133
:10146000880F991F9601281B390BC90140E050E0F5
:10147000BA010E946E0162E070E080E090E00E949C
:1014800053090E9430062196D4CF0E946406812C15
:10149000912C54012401350164E873E080E090E070
:1014A0000E9453093FEF831A930AA30AB30A6C59A7
:1014B0007F4F8F4F9F4F641575058605970594F0F4
:1014C00040E050E0BA01C6010E946E0162E070E0A7
:1014D00080E090E00E9453090E9430068AE0C80E26
:1014E000D11CD8CFDF91CF91FF90EF90DF90CF90BC
:1014F000BF90AF909F908F907F906F905F904F9034
:1015000008958F929F92AF92BF92CF92DF92EF9207
:10151000FF920F931F93CF93DF930E94040180915A
:101520000001882309F489C01092000166E070E090
:1015300080E090E00E945309DC01CB010196A11DDF
:10154000B11D83309105A105B10509F487C00CF0E8
:1015500078C081309105A105B10509F48CC00297CE
:10156000A105B10509F47CC0CAE5D0E0812C912C1D
:10157000540153EBE52EF12C64EBC62ED12C66E022
:1015800070E080E090E00E9453096D5F7F4F8F4FC5
:101590009F4F681579058A059B050CF46FC00E9462
:1015A0006C0664E77EE080E090E00E945309DC0175
:1015B000CB01845A9640A109B1098053984F40E06D
:1015C00050E0BA010E946E012091000180918201D9
:1015D00090918301222309F40BC197012C1B3D0B31
:1015E0002817390754F086010C1B1D0BC8010E94F7
:1015F000CA03109383010093820164E670E080E0E7
:1016000090E00E9453096A5B7F4F8F4F9F4F0E946B
:1016100030060E9464068AE00E94DF056EE170E0F9
:1016200080E090E00E9453090E9430068FEF881AF4
:10163000980AA80AB80A2B97A2CF81E080930001EC
:1016400075CF85309105A105B10569F084F0069745
:10165000A105B10509F088CF0E946D090E94F60925
:101660000E946D0981CF0E94F6090E946D090E94B7
:10167000F6090E946D090E94F60976CF8AE00E9461
:10168000DF0580910001811144C0209182013091D9
:1016900083016AE570E0621B730B80ED97E00E94A6
:1016A000A119709381016093800130937F01209391
:1016B0007E014AE0C42ED12CE12CF12C80917E01D8
:1016C00090917F018B35910524F50E94CA030E94F9
:1016D000B214A70196010E944D1663307105B4F053
:1016E0000E946C066091800170918101072E000CB0
:1016F000880B990B0E94300680917E0190917F01AA
:10170000019690937F0180937E01D8CF0E9464065A
:10171000E9CF80910001882309F443C02091820120
:1017200030918301B9016A55710980ED97E00E94FB
:10173000A119709381016093800130937F01209300
:101740007E013AE0C32ED12CE12CF12C80917E0158
:1017500090917F018A35910524F10E94CA030E946D
:10176000B214A70196010E944D1663307105B4F0C2
:101770000E946C066091800170918101072E000C1F
:10178000880B990B0E94300680917E0190917F0119
:10179000019790937F0180937E01D8CF0E946406C9
:1017A000E9CF0E9464060E94B21428EE33E040E0C4
:1017B00050E00E944D160E943006E091FD028E2FEF
:1017C00090E0FC01EE0FFF1FE80FF91FEC52FD4FF8
:1017D00080818F7B8083DF91CF911F910F91FF904C
:1017E000EF90DF90CF90BF90AF909F908F90089533
:1017F000C817D9070CF001CFCE010E94CA03D093BD
:101800008301C0938201F9CE0C943F16682F80911A
:101810001F02909120020E94040C80911F0290915F
:10182000200201969093200280931F0208950C9449
:1018300037162F923F924F925F926F927F928F92C4
:101840009F92AF92BF92CF92DF92EF92FF920F934F
:101850001F93CF93DF93E0901F02F09020023AE0B5
:10186000C32ED12C49E1642E52E3752EE11422E0FF
:10187000F2060CF0E2C0C7010E943716C82FD0E074
:10188000CF3FD10509F4D9C0CA3FD10509F046C000
:101890004FEFE41AF40AC7010E94170C282F30E01A
:1018A000893C88F0285C3109729EC001739E900DBE
:1018B00011248254954F90937D0180937C018FEF8A
:1018C000E81AF80AD3CF873950F026593109629EB9
:1018D000C001639E900D112484529A4FECCF85363F
:1018E00058F0245631094FE0429FC001439F900DAC
:1018F000112482519D4FDFCF833358F02253310999
:101900004AE0429FC001439F900D112486509F4F93
:10191000D2CF25E0829FC0011124CDCF9E01205F50
:1019200031092A30310520F4805F80930501C7CF4B
:10193000C03FD10524F6CE01C837D1050CF06EC0EA
:10194000B6010E94A1198B0146EF4003B001419FEF
:10195000700D1124C60FD71FD09105016D2F70E0B7
:1019600090E080E00E9418159B01AC0160E070E0FF
:1019700080E090E40E948F17000F111F000F111FCD
:10198000F801ED5EFE4F20813181428153810E943A
:1019900079151B012C016C2F70E090E080E00E9413
:1019A00018159B01AC016EEA77E481EA9FE30E947F
:1019B0008F1726E636E646E452E40E9479150E9427
:1019C00059174B0170937B0160937A0161E08DE0C0
:1019D000D53008F488E00E949305092C000CAA0871
:1019E000BB08C201B1010E946017CB01B501A4017F
:1019F0000E946E01C501B4010E9430060E94640677
:101A00008AE00E94DF0560917C0170917D01072EC4
:101A1000000C880B990B0E94300651CF8857910912
:101A2000B6010E94A1198B01CE56D10926EF2003E1
:101A3000B001219F700D11248DCFDF91CF911F91A7
:101A40000F91FF90EF90DF90CF90BF90AF909F905D
:101A50008F907F906F905F904F903F902F90089560
:101A60001F920F920FB60F9211242F933F934F9313
:101A70005F936F937F938F939F93AF93BF93EF93F6
:101A8000FF9380912A0290912B02A0912C02B09199
:101A90002D02892B8A2B8B2BD1F190912502E0917D
:101AA0002602F091270280818927808380912A0273
:101AB00090912B02A0912C02B0912D0218161906BC
:101AC0001A061B069CF480912A0290912B02A09189
:101AD0002C02B0912D020197A109B10980932A022D
:101AE00090932B02A0932C02B0932D02FF91EF91C3
:101AF000BF91AF919F918F917F916F915F914F9126
:101B00003F912F910F900FBE0F901F9018958091CD
:101B100006010E94DF05EACF1F920F920FB60F92C7
:101B200011242F933F934F935F936F937F938F93E2
:101B30009F93AF93BF93EF93FF9387E392E00E944D
:101B40000405FF91EF91BF91AF919F918F917F918C
:101B50006F915F914F913F912F910F900FBE0F901A
:101B60001F9018951F920F920FB60F9211242F936A
:101B70008F939F93EF93FF93E0914702F091480278
:101B80008081E0914D02F0914E0282FD1BC0908158
:101B9000809150028F5F8F7320915102821741F024
:101BA000E0915002F0E0E95CFD4F958F8093500288
:101BB000FF91EF919F918F912F910F900FBE0F90FA
:101BC0001F9018958081F4CF1F920F920FB60F923D
:101BD00011242F933F938F939F93AF93BF93809143
:101BE000210290912202A0912302B091240230910F
:101BF000170223E0230F2D3758F50196A11DB11DC3
:101C0000209317028093210290932202A093230233
:101C1000B09324028091180290911902A0911A02A7
:101C2000B0911B020196A11DB11D809318029093E3
:101C30001902A0931A02B0931B02BF91AF919F911A
:101C40008F913F912F910F900FBE0F901F9018957D
:101C500026E8230F0296A11DB11DD2CF1F920F922D
:101C60000FB60F9211242F933F934F935F936F936F
:101C70007F938F939F93AF93BF93EF93FF93E091E5
:101C80000301F09104010995FF91EF91BF91AF918C
:101C90009F918F917F916F915F914F913F912F9184
:101CA0000F900FBE0F901F9018951F920F920FB6B6
:101CB0000F9211242F933F934F935F936F937F93D2
:101CC0008F939F93AF93BF93EF93FF93E0910101A5
:101CD000F09102010995FF91EF91BF91AF919F9112
:101CE0008F917F916F915F914F913F912F910F90C5
:101CF0000FBE0F901F9018951F920F920FB60F9264
:101D000011242F933F934F935F936F937F938F9300
:101D10009F93AF93BF93CF93DF93EF93FF93809104
:101D20001602C091F802D0E087FF24C0109285000F
:101D300010928400809116028F5F8093160280912A
:101D40001602082E000C990B8C179D0724F4809125
:101D500016028C30C4F18091840090918500049625
:101D600080349C4908F47AC0809184009091850069
:101D7000049676C080911602082E000C990B8C17E1
:101D80009D07C4F6E09116028E2FEE0F990BFC0111
:101D9000EE0FFF1FE80FF91FEC52FD4F808186FF09
:101DA000C9CFE09116028E2FEE0F990BFC01EE0FBA
:101DB000FF1FE80FF91FEC52FD4F808160E08F7329
:101DC0000E949305B7CF2091840030918500E09167
:101DD00016028E2FEE0F990BFC01EE0FFF1FE80F7E
:101DE000F91FEC52FD4F81819281820F931F9093D6
:101DF000890080938800E09116028E2FEE0F990BD8
:101E0000FC01EE0FFF1FE80FF91FEC52FD4F808120
:101E100086FF11C0E09116028E2FEE0F990BFC0188
:101E2000EE0FFF1FE80FF91FEC52FD4F808161E0BC
:101E30008F730E949305FF91EF91DF91CF91BF9136
:101E4000AF919F918F917F916F915F914F913F9152
:101E50002F910F900FBE0F901F90189580E49CE972
:101E600090938900809388008FEF80931602E3CFD0
:101E7000CF93DF9310923A021092390288EE93E0EA
:101E8000A0E0B0E080933B0290933C02A0933D021F
:101E9000B0933E028EE491E0909338028093370233
:101EA00085EC90E0909344028093430284EC90E0B0
:101EB000909346028093450280EC90E09093480214
:101EC0008093470281EC90E090934A02809349020C
:101ED00082EC90E090934C0280934B0286EC90E071
:101EE00090934E0280934D02109250021092510234
:101EF0001092520210925302CFEFDFEFD0932103E2
:101F0000C09320038AE090E0909323038093220300
:101F100049E050E06BE371E084E293E00E940A152F
:101F2000D0931F03C0931E038CE390E090930801AD
:101F3000809307011092F9021092FA021092FB02AC
:101F40001092FC0262E771E088E193E00E948F0842
:101F50006CE571E080E093E00E948F0861E671E03B
:101F600086E093E00E948F0864E671E08CE093E0E5
:101F70000E948F0868E671E082E193E00E948F087A
:101F80008091F8028C30A8F491E0980F9093F802B9
:101F90008093FD0290E0FC01EE0FFF1FE80FF91F98
:101FA000EC52FD4F88EB9BE092838183DF91CF91D0
:101FB00008958FEF8093FD02F9CFCF93DF93CDB7D4
:101FC000DEB7AE970FB6F894DEBF0FBECDBF7894E4
:101FD00084B5826084BD84B5816084BD85B582602E
:101FE00085BD85B5816085BD80916E0081608093DF
:101FF0006E00109281008091810082608093810048
:102000008091810081608093810080918000816057
:10201000809380008091B10084608093B1008091B2
:10202000B00081608093B00080917A0084608093DA
:102030007A0080917A00826080937A0080917A00A1
:10204000816080937A0080917A00806880937A0022
:102050001092C100E0914702F091480282E0808333
:10206000E0914302F09144021082E0914502F09128
:10207000460280E1808310924F02E0914B02F09182
:102080004C0286E08083E0914902F0914A0280810F
:1020900080618083E0914902F0914A0280818860EA
:1020A0008083E0914902F0914A02808180688083B8
:1020B000E0914902F0914A0280818F7D80838DE614
:1020C00091E00E94D80780E791E00E94D807109223
:1020D0001F0310921E031092F9021092FA0210923E
:1020E000FB021092FC0210921D0210921C0284E767
:1020F00096E09093020180930101809169008C7FAA
:10210000816080936900E89A8AE00E94E5008DE092
:102110000E94E50088E00E94E50080E480937C0056
:1021200080917A00806480937A0080917A0086FDA5
:10213000FCCF8091780060917900762F682F072E70
:10214000000C880B990B611571058105910511F043
:102150000E94011585E00E94E50086E00E94E500EE
:102160000E940401E091FD028E2F90E0FC01EE0F31
:10217000FF1FE80FF91FEC52FD4F80818F7B80839A
:102180003AE0832E912CA12CB12C8091F9029091F0
:10219000FA02A091FB02B091FC02892B8A2B8B2BB7
:1021A00009F490C0C090F902D090FA02E090FB02CE
:1021B000F090FC0226013701C114D104E104F104BE
:1021C00009F478C083E791E00E94D807F7FEABC01E
:1021D0006DE287E392E00E94260522273327A901BA
:1021E0002C193D094E095F0919A28E010F5D1F4F81
:1021F000CA01B901A50194010E94B616605DF801FB
:1022000062938F01211531054105510589F70115AB
:10221000110519F0C8010E94D80780E791E00E94DB
:10222000D80703E4602E01E0702E412CF3010191E8
:102230003F0110E0C8010E94170C8CA7C80101964D
:102240000E94170C582EC80102960E94170C8DA7E9
:10225000C80103960E94170C452D50E070E060E025
:10226000762F652F542F4427FCA54F0F511D611D5C
:10227000711D9DA5092F10E030E020E09801112785
:102280000027400F511F621F731F90E0B0E0A0E0D5
:10229000B82FAA2799278827840F951FA61FB71F35
:1022A000C816D906EA06FB0609F453C04394E7E0D2
:1022B0004E12BCCF1092F9021092FA021092FB0259
:1022C0001092FC0287E392E00E94E40418161906BB
:1022D0000CF08DC162E771E0CE0182960E948F08FA
:1022E0000E94960497FD90C08A30910509F48CC035
:1022F00089831A820EA11FA10F5F1F4FB801CE0163
:1023000082960E943C08882359F32AA13BA18EA102
:102310009FA1BE016F5F7F4F820F931F0E94AF1B73
:102320001FA30EA3DDCF19A28E010F5D1F4FC301A6
:10233000B201A50194010E94B61629013A01605D1F
:10234000F80162938F01411451046104710479F71B
:102350005ECFF3E04F16A9F1F41558F021E04216D4
:10236000A1F032E04316F1F00E94810A0E94810A36
:10237000A1CF85E0481609F444C04816C8F196E09C
:102380004912F2CF88E891E035C061E085E00E9413
:10239000930564E670E080E090E00E94300660E023
:1023A00085E00CC061E086E00E9493056CE370E07C
:1023B00080E090E00E94300660E086E00E94930595
:1023C00079CF61E085E00E94930561E086E00E949C
:1023D00093056CE370E080E090E00E94300660E0DE
:1023E00086E00E94930568E270E080E090E0D5CF3F
:1023F0008CE190E09093200280931F020E94190CC0
:1024000059CF86E091E0F6CF1A8219821C821B8296
:102410001E821D826AA17BA16115710531F04EA15A
:102420005FA1CE0101960E9464080D811E810F5F9D
:102430001F4FB801CE0101960E943C08882309F481
:102440004DC029813A818D819E8167E771E0820FBD
:10245000931F0E94AF1B1E830D8369817A816115D2
:10246000710509F440C04D815E8188E193E00E94CE
:102470006408CE0101960E943408CE0182960E9423
:1024800034087DE0D72E0E945C01FC01008160E0F1
:10249000E62E63E0F62E10E0F7014481558170E0EE
:1024A00060E0CE0101960E94A0082D813E81F701D7
:1024B000848195812817390761F589819A81608126
:1024C00071810097A9F06115710509F061C0232B96
:1024D00009F461C0FC01808190E017C0CE01019633
:1024E0000E942208BACF88E193E00E942208C1CF5F
:1024F0006115710509F44FC0232B09F44CC0FB0191
:10250000808190E0919581959109CC24C394892B89
:1025100009F0C12CCE0101960E943408C1103EC0C2
:102520001F5FF6E0EF0EF11C143009F0B5CF80ED1F
:10253000800F8A3008F0CDC0E0900501F12C0E9498
:102540005C01FC0180818053990BE816F90669F063
:102550000E945C01FC01808190ED980F9093050131
:10256000805480931E020E94060C40911C035091DF
:102570001D0361E070E0CE0101960E94A008CE012B
:1025800001960E94E507CE0101960E94340828C0FA
:102590000E94A61BBACFCC24C394BCCF123009F43E
:1025A00065C0133009F46CC0113099F184E00E94C9
:1025B000EA086230710551F06330710529F161302C
:1025C000710541F43CE1232E312C04C056E0252E48
:1025D000332433943092200220921F02D0921E02A4
:1025E00080911C0390911D03892B09F04CCF80E052
:1025F00090E0892B09F4C9CD0E94F004882309F4E6
:10260000C4CD0E940000C1CD48E8242E3324339469
:10261000E1CF82E00E94EA086D5B7E4FFB01E08023
:102620000E2D10E081E00E94EA082B013C01C80158
:102630000E94040C992777FC9A95872D762D652D9D
:10264000C80101960E94040CB301992777FD90956B
:10265000892FC80102960E94040C672D77278827CE
:102660009927C80103960E94040CBACF62E771E073
:1026700088E193E00E9485088FEF0E94060CB0CF9E
:1026800084E00E94EA086230710559F063307105F8
:10269000D9F06130710549F4ECE1F0E0F9A7E8A761
:1026A00004C026E031E039A728A728A539A5309332
:1026B000200220931F0262E771E088E193E00E940C
:1026C00085080E94190C8CCF88E891E099A788A70B
:1026D000ECCF8CEB800F803308F047CF033509F443
:1026E00058C0ECF5093409F458C08CF5043409F4E9
:1026F00058C0063409F449C010931E0281E00E94BC
:10270000EA082B011A3F09F080C08AEF0E94060CEC
:10271000FDE74F16F5E15F06C4F42FEB42162AE001
:1027200052060CF440C0C2018E5B9A4067E370E031
:102730000E94A11968537F4F072E000C880B990B3C
:102740000E941A150E9459176EA78EA596CF0D34B8
:1027500099F20235B1F00C3479F619E0CDCF063696
:10276000B1F034F40435D9F0043631F611E0C4CFB9
:10277000023749F0033779F00C3609F0BDCF1AE083
:10278000BBCF12E0B9CF13E0B7CF15E0B5CF16E05D
:10279000B3CF17E0B1CF18E0AFCF1BE0ADCF1AEF4A
:1027A000ABCF10E0A9CF3DED431635E0530654F012
:1027B000C2018C5D954069E170E00E94A1196A56E2
:1027C0007F4FBACF8FEE481682E0580654F0C20110
:1027D0008E5E92406FE070E00E94A1196C597F4FAD
:1027E000ABCF9BEF4916510454F0C2018A5F9109A7
:1027F0006AE070E00E94A1196E5C7F4F9DCFC2011C
:1028000065E070E00E94A11997CF072E000C880B9D
:10281000990B0E941A1526E636E646E452E40E9419
:10282000E7162B013C01F12CE12C2DEC3CEC4CE8A3
:102830005FE3C301B2010E94131587FF21C0EAE0E4
:102840001E9FC0011124FAE0EF16F1048CF49701E9
:10285000280F391F3BA72AA7809105018A3031F440
:1028600084E08093050184EF0E94060C8AA505CFC1
:102870008E0D9F1DFC01E259FF4FFBA7EAA7ECCF8D
:102880002EEA37E441EA5FE3C301B2010E94E71692
:102890002B013C01FFEFEF1AFF0A25E1E216F104DC
:1028A00021F6E4CF82E193E00E9434088CE093E0CB
:1028B0000E94340886E093E00E94340880E093E0B0
:1028C0000E94340888E193E00C9434088F929F9220
:1028D000AF92BF92CF92DF92EF92FF92CF93DF93AE
:1028E000EC01688179818A819B816115710581057F
:1028F000910521F464E279ED8BE597E02DE133EF6A
:1029000041E050E00E944D1649015A019B01AC0183
:10291000A7EAB1E40E946C166B017C01ACEEB4EF47
:10292000A50194010E947A16C60ED71EE81EF91E54
:10293000F7FE06C081E0C81AD108E10880E8F80A6D
:10294000C882D982EA82FB82C701B6019F77DF91F4
:10295000CF91FF90EF90DF90CF90BF90AF909F907E
:102960008F9008958F929F92AF92BF92CF92DF92F5
:10297000EF92FF926091090170910A0180910B0121
:1029800090910C01611571058105910521F464E2B6
:1029900079ED8BE597E02DE133EF41E050E00E94C7
:1029A0004D1649015A019B01AC01A7EAB1E40E940E
:1029B0006C166B017C01ACEEB4EFA50194010E9492
:1029C0007A16C60ED71EE81EF91EF7FE06C081E075
:1029D000C81AD108E10880E8F80AC0920901D0922B
:1029E0000A01E0920B01F0920C01C701B6019F773A
:1029F000FF90EF90DF90CF90BF90AF909F908F901F
:102A000008956093090170930A0180930B019093DC
:102A10000C010895FB01DC0102C005900D924150AC
:102A20005040D8F708950E94551508F481E00895A4
:102A3000E89409C097FB3EF4909580957095619558
:102A40007F4F8F4F9F4F9923A9F0F92F96E9BB270E
:102A50009395F695879577956795B795F111F8CF8A
:102A6000FAF4BB0F11F460FF1BC06F5F7F4F8F4FF5
:102A70009F4F16C0882311F096E911C0772321F0EB
:102A80009EE8872F762F05C0662371F096E8862F83
:102A900070E060E02AF09A95660F771F881FDAF7DA
:102AA000880F9695879597F90895990F0008550F07
:102AB000AA0BE0E8FEEF16161706E807F907C0F0C4
:102AC00012161306E407F50798F0621B730B840BCC
:102AD000950B39F40A2661F0232B242B252B21F4A6
:102AE00008950A2609F4A140A6958FEF811D811D46
:102AF00008950E948C150C94FD150E94EF1538F076
:102B00000E94F61520F0952311F00C94E6150C9414
:102B1000EC1511240C9431160E940E1670F3959F3B
:102B2000C1F3950F50E0551F629FF001729FBB27C4
:102B3000F00DB11D639FAA27F00DB11DAA1F649F60
:102B40006627B00DA11D661F829F2227B00DA11D13
:102B5000621F739FB00DA11D621F839FA00D611D99
:102B6000221F749F3327A00D611D231F849F600DBA
:102B7000211D822F762F6A2F11249F5750409AF0E3
:102B8000F1F088234AF0EE0FFF1FBB1F661F771F6F
:102B9000881F91505040A9F79E3F510580F00C943A
:102BA000E6150C9431165F3FE4F3983ED4F3869516
:102BB00077956795B795F795E7959F5FC1F7FE2BDA
:102BC000880F911D9695879597F9089597F99F67B6
:102BD00080E870E060E008959FEF80EC08950024A5
:102BE0000A941616170618060906089500240A9472
:102BF00012161306140605060895092E0394000CF8
:102C000011F4882352F0BB0F40F4BF2B11F460FF86
:102C100004C06F5F7F4F8F4F9F4F089557FD9058AF
:102C2000440F551F59F05F3F71F04795880F97FB90
:102C3000991F61F09F3F79F087950895121613064A
:102C40001406551FF2CF4695F1DF08C01616170679
:102C50001806991FF1CF86957105610508940895AE
:102C6000E894BB2766277727CB0197F90895F99950
:102C7000FECF92BD81BDF89A992780B50895262F81
:102C8000F999FECF1FBA92BD81BD20BD0FB6F89451
:102C9000FA9AF99A0FBE01960895052E97FB1EF435
:102CA00000940E94641657FD07D00E94B61607FCD8
:102CB00003D04EF40C9464165095409530952195B0
:102CC0003F4F4F4F5F4F0895909580957095619558
:102CD0007F4F8F4F9F4F08950E94D816A59F900D4C
:102CE000B49F900DA49F800D911D11240895B7FFEE
:102CF0000C946C160E946C16821B930B08952F92F5
:102D00003F924F925F926F927F928F929F92AF927B
:102D1000BF92CF92DF92EF92FF920F931F93CF93C8
:102D2000DF93CDB7DEB7CA1BDB0B0FB6F894DEBF5F
:102D30000FBECDBF09942A88398848885F846E8485
:102D40007D848C849B84AA84B984C884DF80EE80CF
:102D5000FD800C811B81AA81B981CE0FD11D0FB6D8
:102D6000F894DEBF0FBECDBFED010895A1E21A2E8B
:102D7000AA1BBB1BFD010DC0AA1FBB1FEE1FFF1F1F
:102D8000A217B307E407F50720F0A21BB30BE40B6F
:102D9000F50B661F771F881F991F1A9469F76095B6
:102DA0007095809590959B01AC01BD01CF01089570
:102DB000A29FB001B39FC001A39F700D811D11247C
:102DC000911DB29F700D811D1124911D08950E94C7
:102DD000FB160C94FD150E94F61558F00E94EF1595
:102DE00040F029F45F3F29F00C94E61551110C9442
:102DF00031160C94EC150E940E1668F39923B1F36A
:102E0000552391F3951B550BBB27AA276217730710
:102E1000840738F09F5F5F4F220F331F441FAA1FA4
:102E2000A9F335D00E2E3AF0E0E832D09150504060
:102E3000E695001CCAF72BD0FE2F29D0660F771F0E
:102E4000881FBB1F261737074807AB07B0E809F0F4
:102E5000BB0B802DBF01FF2793585F4F3AF09E3F79
:102E6000510578F00C94E6150C9431165F3FE4F3AD
:102E7000983ED4F3869577956795B795F7959F5FBC
:102E8000C9F7880F911D9695879597F90895E1E008
:102E9000660F771F881FBB1F621773078407BA0767
:102EA00020F0621B730B840BBA0BEE1F88F7E095C2
:102EB00008950E9460176894B1110C94311608951A
:102EC0000E94161688F09F5798F0B92F9927B7518E
:102ED000B0F0E1F0660F771F881F991F1AF0BA95BE
:102EE000C9F714C0B13091F00E943016B1E00895D6
:102EF0000C943016672F782F8827B85F39F0B93FC8
:102F0000CCF3869577956795B395D9F73EF4909570
:102F10008095709561957F4F8F4F9F4F0895FA016F
:102F2000EE0FFF1F309621053105A1F161157105E6
:102F300061F48038BFE39B0749F1689490388105BC
:102F400061F08038BFEF9B0741F099234AF5FF3FBE
:102F5000E1053105210519F1E8940894E795D901B7
:102F6000AA2329F4AB2FBE2FF85FD0F310C0FF5F68
:102F700070F4A695E0F7F73950F019F0FF3A38F4FD
:102F80009F779F930DD00F9007FC9058089546F0BF
:102F90000C94EC1560E070E080E89FE308954FE743
:102FA0009F775F934F933F932F930E948A182F919F
:102FB0003F914F915F910E9479150C94E71729F486
:102FC00016F00C94E6150C9430160C94EC150E9437
:102FD0001616A8F39638A0F707F80F92E8942BE39B
:102FE0003AEA48EB5FE70E948F150F920F920F921B
:102FF0004DB75EB70F920E94D218E8E6F0E00E944B
:1030000019184F915F91EF91FF91E595EE1FFF1F0A
:1030100049F0FE57E0684427EE0F441FFA95E1F7A8
:103020004195550B0E944C180F9007FE0C944018C8
:103030000895DF93CF931F930F93FF92EF92DF9248
:103040007B018C01689406C0DA2EEF010E948C157A
:10305000FE01E894A5912591359145915591A6F3EE
:10306000EF010E941E19FE019701A801DA9469F789
:10307000DF90EF90FF900F911F91CF91DF91089516
:103080009B01AC0160E070E080E89FE30C94E716E0
:103090000C94E6150C9473190E941616D8F3992314
:1030A000C9F3940F511DA3F39150504094F059F07F
:1030B000882332F0660F771F881F91505040C1F768
:1030C0009E3F51052CF7880F911D9695879597F98E
:1030D00008955F3FACF0983E9CF0BB2786957795AE
:1030E0006795B79508F4B1609395C1F7BB0F58F792
:1030F00011F460FFE8CF6F5F7F4F8F4F9F4FE3CF9B
:103100000C94311616F00C9473190C94EC15689409
:103110000C94E6150E941616A8F39923C1F3AEF39A
:10312000DF93CF931F930F93FF92C92FDD2788233F
:103130002AF02197660F771F881FDAF720E030E02A
:1031400040E85FEB9FE3883920F0803E38F021961D
:103150008F770E940719E0E9F0E004C00E94071988
:10316000EDEBF0E00E9419188B01BE01EC01FB2E83
:103170006F5771097595771F880B990B0E941A1567
:1031800028E132E741E35FE30E948C15AF2D9801FF
:10319000AE01FF900F911F91CF91DF910E941E19F8
:1031A0000C94FD15FA01DC01AA0FBB1F9B01AC01B9
:1031B000BF5728F4222733274427507820C0B7511F
:1031C00090F4AB2F0024469537952795011CA395C5
:1031D000D2F3002071F0220F331F441FB395DAF3AE
:1031E0000ED00C94061961307105A0E88A07B94623
:1031F00030F49B01AC0166277727882790783096BA
:1032000021F0208331834283538308955058BB2794
:10321000AA270E941E190C94FD150E94EF1538F084
:103220000E94F61520F039F49F3F19F426F40C940F
:10323000EC150EF4E095E7FB0C94E615E92F0E94DF
:103240000E1658F3BA17620773078407950720F024
:1032500079F4A6F50C9430160EF4E0950B2EBA2FE7
:10326000A02D0B01B90190010C01CA01A00111248C
:10327000FF27591B99F0593F50F4503E68F11A1638
:10328000F040A22F232F342F4427585FF3CF4695C9
:1032900037952795A795F0405395C9F77EF41F16EB
:1032A000BA0B620B730B840BBAF09150A1F0FF0FB5
:1032B000BB1F661F771F881FC2F70EC0BA0F621FA1
:1032C000731F841F48F4879577956795B795F79591
:1032D0009E3F08F0B0CF9395880F08F09927EE0F26
:1032E0009795879508959F3F31F0915020F48795E9
:1032F00077956795B795880F911D9695879597F95E
:103300000895991B79E004C0991F961708F0961B41
:10331000881F7A95C9F780950895AA1BBB1B51E1B8
:1033200007C0AA1FBB1FA617B70710F0A61BB70B35
:10333000881F991F5A95A9F780959095BC01CD01DA
:10334000089597FB072E16F4009407D077FD09D057
:103350000E948D1907FC05D03EF4909581959F4FF2
:103360000895709561957F4F0895EE0FFF1F0590AA
:10337000F491E02D09940F931F93CF93DF93823044
:10338000910510F482E090E0E0912F03F09130037A
:1033900030E020E0B0E0A0E0309799F4211531054D
:1033A00009F44AC0281B390B24303105D8F58A812D
:1033B0009B816115710589F1FB0193838283FE0175
:1033C00011C0408151810281138148175907E0F0F3
:1033D0004817590799F4109761F012960C931297B9
:1033E00013961C933296CF01DF91CF911F910F91CD
:1033F000089500932F0310933003F4CF2115310566
:1034000051F04217530738F0A901DB019A01BD01C1
:10341000DF01F801C1CFEF01F9CF90933003809322
:103420002F03CDCFFE01E20FF31F81939193225022
:10343000310939832883D7CF20912D0330912E0372
:10344000232B41F420910F013091100130932E0372
:1034500020932D0320910D0130910E01211531058E
:1034600041F42DB73EB74091110150911201241B38
:10347000350BE0912D03F0912E03E217F307A0F432
:103480002E1B3F0B2817390778F0AC014E5F5F4FBA
:103490002417350748F04E0F5F1F50932E034093BB
:1034A0002D03819391939FCFF0E0E0E09CCFCF93E9
:1034B000DF930097E9F0FC01329713821282A0910A
:1034C0002F03B0913003ED0130E020E01097A1F41C
:1034D00020813181820F931F20912D0330912E0383
:1034E0002817390709F061C0F0932E03E0932D03EC
:1034F000DF91CF910895EA01CE17DF07E8F54A8101
:103500005B819E0141155105B1F7E901FB83EA8317
:1035100049915991C40FD51FEC17FD0761F48081C3
:1035200091810296840F951FE90199838883828196
:1035300093819B838A83F0E0E0E012968D919C91C9
:1035400013970097B9F52D913C911197CD010296F3
:10355000820F931F20912D0330912E0328173907D6
:1035600039F6309751F51092300310922F03B09333
:103570002E03A0932D03BCCFD383C28340815181FE
:10358000840F951FC817D90761F44E5F5F4F88817C
:103590009981480F591F518340838A819B8193836E
:1035A00082832115310509F0B0CFF0933003E09309
:1035B0002F039ECFFD01DC01C0CF13821282D7CF33
:1035C000B0E0A0E0E6EEFAE10C9481168C010097E1
:1035D00051F4CB010E94BB198C01C801CDB7DEB7F5
:1035E000E0E10C949D16FC01E60FF71F9C012250B0
:1035F0003109E217F30708F49DC0D901CD91DC91A0
:103600001197C617D70798F0C530D10530F3CE0112
:1036100004978617970708F3C61BD70B2297C19309
:10362000D1936D937C93CF010E94571AD6CF5B0143
:10363000AC1ABD0A4C018C0E9D1EA0912F03B091B7
:103640003003512C412CF12CE12C109731F5809155
:103650002D0390912E038815990509F05CC046163C
:10366000570608F058C080910D0190910E01009707
:1036700041F48DB79EB74091110150911201841B06
:10368000950BE817F90708F055C0F0932E03E09367
:103690002D03F90171836083A0CF8D919C911197C7
:1036A00012966C90129713967C901397A815B905F3
:1036B00059F56C0142E0C40ED11CCA14DB0420F1A0
:1036C000AC014A195B09DA011296159780F0628203
:1036D000738251834083D9016D937C93E114F1048B
:1036E00071F0D7011396FC93EE93129776CF229642
:1036F0008C0F9D1FF90191838083F301EFCFF0932D
:103700003003E0932F0369CF4816590608F42C01C3
:103710007D01D3019ACFCB010E94BB197C01009798
:1037200049F0AE01B8010E949D1BC8010E94571AC2
:10373000870153CF10E000E050CFFB01DC0102C055
:1037400001900D9241505040D8F70895FB01DC01E3
:103750008D91019080190110D9F3990B0895FB0107
:10376000DC0101900D920020E1F7089510E0CAEB12
:10377000D0E004C0FE010E94B5192196CB3BD107D1
:06378000C9F7F894FFCF29
:1037860001630663060AFF3C0001000000000031E9
:1037960003800014D0824159978A41FED492412E6B
:1037A600909B4148D0A441159DAE412EFFB8416380
:1037B600FFC341E9A6CF410000DC41E414E941D84A
:1037C600F0F6410004080C1014180000000026054D
:1037D600460473047305E4048204D604736F6E67AB
:1037E60000726600656E6400706C6179004F4B0074
:0A37F6000D0A0052463E00200000BC
:00000001FF
