:020000040000FA
:100000000C94BB000C94F10F0C94CA0F0C94E300F9
:100010000C94E3000C94E3000C94E3000C94CC0EDD
:100020000C94E3000C94E3000C94E3000C9418107F
:100030000C94E3000C94E3000C94E3000C94E300B4
:100040000C94800F0C94E3000C944E0F0C94280F2A
:100050000C94E3000C94E3000C94E3000C94E30094
:100060000C94E3000C94E30007634236B79BD8A7D7
:100070001A39685618AEBAAB558C1D3CB7CC5763CD
:10008000BD6DEDFD753EF6177231BF000000803F7B
:1000900008000000BE922449123EABAAAA2ABECD97
:1000A000CCCC4C3E00000080BEABAAAAAA3E000009
:1000B0000000BF000000803F000000000008417801
:1000C000D3BB4387D1133D190E3CC3BD4282AD2B38
:1000D0003E68EC8276BED98FE1A93E4C80EFFFBE30
:1000E00001C4FF7F3F000000000000000008000284
:1000F00001000003040700000000000000000200EF
:10010000000000250028002B00000000002400272C
:10011000002A00040404040404040402020202028B
:1001200002030303030303010204081020408001BB
:1001300002040810200102040810205E01011F01C2
:10014000030301008A02010A010202010064001E89
:1001500047040B0906007C0101060103030100F4BA
:1001600001060E0102020100C20117010102020193
:100170000100D410F81611241FBECFEFD8E0DEBF67
:10018000CDBF12E0A0E0B1E0EEECFCE302C00590D0
:100190000D92A237B107D9F724E0A2E7B2E001C07F
:1001A0001D92A633B207E1F710E0CAEBD0E004C01D
:1001B0002197FE010E94591CC93BD107C9F70E9433
:1001C00085110C945A1E0C940000CF92DF92EF928E
:1001D000FF92DC01A03282E0B807D4F5A53BB1055F
:1001E00014F0A4EBB0E04091F70328E830E0241BC2
:1001F000310947FD3395220F331F220F331F690149
:10020000330FEE08FF084091F80328E532E0241B85
:10021000310947FD3395220F331F220F331F032E61
:10022000000C440B550B2C193D094E095F09B7FF13
:1002300002C0B0E0A0E00E941B1924EB30E040E0D7
:1002400050E00E94F118C20ED31EE41EF51ED60126
:10025000E091F603EC3080F52091F70388E890E018
:10026000821B910927FD9395880F991F880F991F6D
:10027000A817B90784F02091F80388E592E0821B63
:10028000910927FD9395880F991F880F991FA8172B
:10029000B9070CF4CD010297880F991F4FB7F89456
:1002A0002E2F30E0F901EE0FFF1FE20FF31FE35393
:1002B000FC4F928381834FBFFF90EF90DF90CF90F0
:1002C000089590E0FC01E95DFE4F24918D5E9E4F04
:1002D000FC018491882399F090E0880F991FFC011C
:1002E000E75FFE4FA591B491FC01E150FF4F85916E
:1002F00094918FB7F894EC91E22BEC938FBF089513
:100300008091F6038C3008F050C089E00E946101B2
:100310008091F603282F30E0F901EE0FFF1FE20F66
:10032000F31FE353FC4F9081907C9960908310926F
:10033000F7031092F8032CE0622F0E94251C829F85
:10034000B001112430E020E0AB01420F531FFA014D
:10035000EE0FFF1FE40FF51FE353FC4F908196FD56
:1003600016C02F5F3F4F2C30310571F781110FC040
:100370001092800082E0809381001092850010929C
:100380008400B19A80916F00826080936F00E09149
:10039000F6038E2F90E0FC01EE0FFF1FE80FF91F10
:1003A000E353FC4F8081806480838091F60308953D
:1003B0008091210490912204892B31F080911D04B9
:1003C00090911E04009721F410922F038FE293E086
:1003D000089508954F925F926F927F928F929F92AD
:1003E000AF92BF92CF92DF92EF92FF920F931F9343
:1003F000CF93DF9300D000D01F92CDB7DEB78C0132
:100400002A013B01809106018A30C9F08F3F09F42F
:100410007EC00F900F900F900F900F90DF91CF91B3
:100420001F910F91FF90EF90DF90CF90BF90AF9012
:100430009F908F907F906F905F904F900895EEEF18
:10044000F0E084918D8387FDE4CF8AE00E94610112
:100450008D81882321F09D81923009F05BC1480194
:10046000B12CA12C60E072E18AE790E0A50198012F
:100470000E94F11829833A834B835C8369017A01D6
:1004800081E0C81AD108E108F1089FEFC916D1042C
:10049000E104F10409F00CF412C160E472E48FE0AD
:1004A00090E0A50198010E94F11869017A0181E0AC
:1004B000C81AD108E108F1089D81923009F097C06F
:1004C0008FEFC816D104E104F10409F00CF4DCC18B
:1004D00060E970ED83E090E0A50198010E94F118B9
:1004E00069017A0191E0C91AD108E108F1088FEF9A
:1004F000C816D104E104F10411F00CF0A2C183E0AC
:100500009091B100987F892B8093B100E0C08AE080
:1005100080930601EEEFF0E094919D839F3F09F4F4
:1005200078CF913021F150F0923009F43EC08D81A6
:1005300087FD6FCF8AE00E9461018DCF14BC15BC8E
:1005400084B5826084BD85B5816085BDEDE1F1E053
:10055000E491F0E0EE0FFF1FE150FF4F8591949181
:10056000E1E3F1E0E491E09322031D826ECF10926B
:1005700080001092810080918100886080938100CA
:1005800080918100816080938100EDE1F1E0E49150
:10059000F0E0EE0FFF1FE150FF4F85919491E1E3F2
:1005A000F1E0E491E093210350CF1092B00010925B
:1005B000B1008091B00082608093B0008091B10062
:1005C00081608093B100EDE1F1E0E491F0E0EE0FA5
:1005D000FF1FE150FF4F85919491909320038093EA
:1005E0001F03E1E3F1E0E491E0931E032ECF9FEFC0
:1005F000C916D104E104F10409F00CF489C068E4DF
:1006000078EE81E090E0A50198010E94F11869015F
:100610007A0181E0C81AD108E108F1089D81992387
:1006200009F428C19FEFC916D104E104F10409F0CF
:100630000CF41EC162E17AE780E090E0A50194012C
:100640000E94F11869017A0181E0C81AD108E10815
:10065000F1089D81992309F4EBC08FEFC816D104EE
:10066000E104F10411F008F0BFC086E049CF64E274
:1006700074EF80E090E0A50194010E94F1186901F7
:100680007A0181E0C81AD108E108F10885E09FEFFE
:10069000C916D104E104F10409F008F431CF62E194
:1006A0007AE780E090E0A50194010E94F1186901C9
:1006B0007A0191E0C91AD108E108F108CECF81E0B2
:1006C0009D8191111DCF95B5987F892B85BD2FEF09
:1006D0003FEFA901411451046104710409F043C0C2
:1006E0009D81913009F45EC0923009F46DC0911182
:1006F00090CEC7BC20932B0330932C0340932D0343
:1007000050932E0380916E00826080936E0081CEA4
:1007100082E0D6CFB12CA12C60E072E18AE790E0B4
:10072000A50198010E94F11869017A0181E0C81AB7
:10073000D108E108F108C114D10491E0E906F104FF
:1007400004F591E08D81813011F680918100887FE0
:10075000892B809381002FEF3FEFA90141145104B1
:1007600061047104F9F0D801AA0FBB1FA301920123
:100770000E94101928EE33E040E050E00E945A1920
:10078000AFCF68E478EE81E090E0A50198010E9487
:10079000F11869017A0181E0C81AD108E108F1086D
:1007A00093E0D0CFD0928900C09288002093270395
:1007B000309328034093290350932A0380916F00BC
:1007C000826080936F0025CEC092B30020932303F4
:1007D00030932403409325035093260380917000A7
:1007E00082608093700015CEC980DA80EB80FC8037
:1007F0009AE0F594E794D794C7949A95D1F791E04D
:10080000C91AD108E108F10887E07ACEC980DA80F8
:10081000EB80FC808AE0F594E794D794C7948A959E
:10082000D1F791E0C91AD108E108F10885E04BCF72
:100830008FEFC816D104E104F10409F038F784E021
:1008400042CF68E478EE81E090E0A50198010E9433
:10085000F11869017A0191E0C91AD108E108F1089B
:100860008FEFC816D104E104F10411F00CF0FFCEB3
:1008700084E046CE8FEFC816D104E104F10411F0F4
:100880000CF0D8CE83E01FCF82E03ACEAF92BF9279
:10089000CF92DF92EF92FF920F931F93CF93DF934C
:1008A0006C017B018B01040F151FEB015E01AE187B
:1008B000BF08C017D10759F06991D601ED91FC919D
:1008C0000190F081E02DC6010995892B79F7C501CA
:1008D000DF91CF911F910F91FF90EF90DF90CF901C
:1008E000BF90AF900895FC01538D448D252F30E0CB
:1008F000842F90E0821B930B541710F0CF9608952D
:1009000001970895FC01918D828D981761F0A28D59
:10091000AE0FBF2FB11D5D968C91928D9F5F9F731F
:10092000928F90E008958FEF9FEF08952FB7F8947E
:1009300080911A0390911B03A0911C03B0911D0399
:100940002FBF8093380390933903A0933A03B09359
:100950003B0380E393E00E94820497FF26C02FB7F9
:10096000F89480911A0390911B03A0911C03B091FD
:100970001D032FBF409138035091390360913A0312
:1009800070913B03841B950BA60BB70B409134036E
:1009900050913503609136037091370384179507A2
:1009A000A607B707B0F28FEF9FEF0895FC01918D76
:1009B000828D981731F0828DE80FF11D858D90E0C2
:1009C00008958FEF9FEF0895FC01918D228D892F5F
:1009D00090E0805C9F4F821B91098F739927089547
:1009E00080E393E00E94E40421E0892B09F420E0F5
:1009F000822F089580E090E0892B29F00E94F00476
:100A000081110C9400000895FC01A48DA80FB92F4A
:100A1000B11DA35ABF4F2C91848D90E001968F7326
:100A20009927848FA689B7892C93A089B1898C9145
:100A3000837080648C93938D848D981306C0028894
:100A4000F389E02D80818F7D80830895EF92FF925E
:100A50000F931F93CF93DF93EC0181E0888F9B8DE1
:100A60008C8D98131AC0E889F989808185FF15C09B
:100A70009FB7F894EE89FF896083E889F9898081BE
:100A80008370806480839FBF81E090E0DF91CF918D
:100A90001F910F91FF90EF900895F62E0B8D10E0AF
:100AA0000F5F1F4F0F731127E02E8C8D8E110CC01E
:100AB0000FB607FCFACFE889F989808185FFF5CF69
:100AC000CE010E940405F1CFEB8DEC0FFD2FF11D3F
:100AD000E35AFF4FF0829FB7F8940B8FEA89FB89A6
:100AE00080818062CFCFCF93DF93EC01888D882304
:100AF000B9F0AA89BB89E889F9898C9185FD03C081
:100B0000808186FD0DC00FB607FCF7CF8C9185FF65
:100B1000F2CF808185FFEDCFCE010E940405E9CFA1
:100B2000DF91CF91089590E0FC01E651FF4F2491B1
:100B3000FC01E95DFE4F3491FC01ED5EFE4FE49156
:100B4000EE23C9F0222339F0233001F1A8F421303B
:100B500019F1223029F1F0E0EE0FFF1FE150FF4FB5
:100B6000A591B4918FB7F894EC91611126C030959E
:100B70003E233C938FBF08952730A9F02830C9F059
:100B8000243049F7809180008F7D03C080918000E0
:100B90008F7780938000DFCF84B58F7784BDDBCFE4
:100BA00084B58F7DFBCF8091B0008F778093B000AC
:100BB000D2CF8091B0008F7DF9CF3E2BDACF9091CC
:100BC000060189130BC0EEEFF0E0E4919FEF9093E4
:100BD0000601E13049F028F0E23061F060E00C9469
:100BE000930510926E00FACF90916F009D7F9093C5
:100BF0006F00F4CF909170009D7F9093700091E012
:100C00009093B0009091B100987F94609093B10060
:100C10001092B300E3CF3FB7F89480910E03909108
:100C20000F03A0911003B091110326B5A89B05C036
:100C30002F3F19F00196A11DB11D3FBFBA2FA92F5B
:100C4000982F8827BC01CD01620F711D811D911D58
:100C500042E0660F771F881F991F4A95D1F70895C4
:100C60008F929F92AF92BF92CF92DF92EF92FF92BC
:100C70006B017C010E940B064B015C01C114D10485
:100C8000E104F104B9F00E940B06681979098A0998
:100C90009B09683E73408105910580F321E0C21AEB
:100CA000D108E108F10888EE880E83E0981EA11CA7
:100CB000B11CE4CFFF90EF90DF90CF90BF90AF904A
:100CC0009F908F900895089560E08DE00E949305B5
:100CD00060E088E00C94930561E08DE00E9493054C
:100CE00061E088E00C949305282F30E0893C58F0AF
:100CF000285C310942E3429FC001439F900D1124BB
:100D00008254954F0895873958F02659310949E1A1
:100D1000429FC001439F900D112484529A4F089521
:100D2000853658F0245631094FE0429FC001439F59
:100D3000900D112482519D4F0895833358F0225312
:100D400031094AE0429FC001439F900D1124865013
:100D50009F4F089525E0829FC0011124089582309D
:100D6000910581F024F4019751F0C9010895833071
:100D7000910559F00497C9F722E133E0F6CF28E452
:100D800030E0F3CF26E331E0F0CF24E232E0EDCFE4
:100D90002F923F924F925F926F927F928F929F928B
:100DA000AF92BF92CF92DF92EF92FF920F931F9379
:100DB000CF93DF93CDB7DEB765970FB6F894DEBF5C
:100DC0000FBECDBF0E940B066B017C018091080312
:100DD000909109032601481A590A2DEC421620E188
:100DE000520608F4DEC08091820290918302A20133
:100DF000481B590BCA0157FF03C091958195910972
:100E0000883C91050CF0C9C08091800290918102CC
:100E100001969093810280938002029709F0BDC0F1
:100E20009BE3692E91E0792E01E010E020907E0294
:100E300030907F023B862A8649E050E0B301CE0124
:100E400001960E94AE178B816C81681708F4682F99
:100E500070E080918202909183020E94311C9B017C
:100E60004091070150910801649FC001659F900D5A
:100E7000749F900D112464E670E00E94311C8985F6
:100E8000A1E0B0E0882311F0A2E0B0E08D81829F64
:100E9000A001839F500D11245D874C878E81829F16
:100EA0001001839F300C11243F862E868F81829FF4
:100EB000A001839F500D1124598B488B8885829FF8
:100EC0001001839F300C11243B8A2A8AFD01EE0F0A
:100ED000FF1FEE57FD4F812C912C54014A855B85F5
:100EE000415051095D8B4C8B8C899D89A817B9079E
:100EF00008F040C0880C991CAA1CBB1C8081918101
:100F0000AC012C843D844219530957FF03C051950D
:100F1000419551094617570770F4428153812E8439
:100F20003F844219530957FF03C051954195510918
:100F300046175707E0F048895989841B950B97FF9E
:100F400003C091958195910986179707C8F482810E
:100F500093812A883B888219930997FF03C0919552
:100F6000819591098617970758F4689480F812962E
:100F70003496BACF4A855B854830510508F053C096
:100F80000F5F1F4F59E0650E711C0730110509F006
:100F90004DCF109281021092800210927F02109227
:100FA0007E0280917E0290917F028334910540F011
:100FB00010927F0210927E021092810210928002A3
:100FC00080917E0290917F029C012F5F3F4F309372
:100FD0007F0220937E02880F991FFC01EE57FD4F80
:100FE00051824082C0920803D0920903E0920A0322
:100FF000F0920B0365960FB6F894DEBF0FBECDBF1F
:10100000DF91CF911F910F91FF90EF90DF90CF90E4
:10101000BF90AF909F908F907F906F905F904F9018
:101020003F902F9008958092F2039092F303A09244
:10103000F403B092F5032C883D88369427943092BF
:1010400013032092120330937D0220937C021093AD
:101050007B0200937A029DCFFC0101900020E9F70A
:101060003197AF01481B590BBC0180E393E00C940E
:1010700046048F929F92AF92BF920F931F93CF938C
:10108000DF93CDB7DEB7A1970FB6F894DEBF0FBEE2
:10109000CDBF19A2423008F44AE08E010F5D1F4F08
:1010A000842E912CB12CA12CA50194010E945A19D7
:1010B000E62FB901CA01EA30F4F4E05DD801EE93FD
:1010C0008D01232B242B252B79F790E080E01097BE
:1010D00019F0CD010E942C08A1960FB6F894DEBF3E
:1010E0000FBECDBFDF91CF911F910F91BF90AF90F9
:1010F0009F908F900895E95CE1CFCF92DF92EF92BD
:10110000FF92CF93DF936B017C016DE280E393E06C
:101110000E942605EC0166277727CB016C197D0913
:101120008E099F094AE00E9439088C0F9D1FDF91AC
:10113000CF91FF90EF90DF90CF900895BC01990F71
:10114000880B990B97FD0C947D084AE00C943908A4
:10115000CF93DF930E942C08EC0187E691E00E9478
:101160002C088C0F9D1FDF91CF9108950C942C08B3
:10117000CF93DF93FC01448155816081718180E3CD
:1011800093E00E944604EC0187E691E00E942C085F
:101190008C0F9D1FDF91CF910895CF93DF93EC01CA
:1011A00080911D0490911E040097E9F06881798177
:1011B00061157105B1F040911F04509120042C81FC
:1011C0003D814217530768F00E94531E8C819D8118
:1011D00090932204809321041D821C82DF91CF9181
:1011E00008950E94FB1C8881998190931E0480932E
:1011F0001D048A819B819093200480931F048C811D
:101200009D819093220480932104198218821B826D
:101210001A82E2CFCF93DF93EC0188819981009706
:1012200011F00E94FB1C198218821D821C821B82F5
:101230001A82DF91CF910895FC01808191810097FE
:1012400011F00C94FB1C08950F931F93CF93DF9321
:10125000EC0188819981009759F02A813B812617FA
:10126000370730F081E0DF91CF911F910F91089502
:101270008B016F5F7F4F0E94841D009759F0998307
:1012800088831B830A832C813D81232B59F7FC0122
:101290001082E8CF80E0E7CFEF92FF920F931F9389
:1012A000CF93DF936115710541F480E0DF91CF9119
:1012B0001F910F91FF90EF90089541155105B1F0E6
:1012C0007B01EC010C811D81040F151FB8010E94E8
:1012D0002409882351F3288139818C819D81B701AC
:1012E000820F931F0E94531E1D830C8381E0DECF6B
:1012F000CF93DF93EC01FB014481558160817181C3
:101300000E944C09811103C0CE010E940A09CE013E
:10131000DF91CF910895EF92FF920F931F93CF9398
:10132000DF93EC017B018A01BA010E94240981113B
:101330000BC0CE010E940A09CE01DF91CF911F910F
:101340000F91FF90EF9008951D830C83B701888162
:1013500099810E94531EF0CFFB0101900020E9F714
:101360003197AF01461B570B0C948B09CF93DF933A
:10137000EC01FB018617970749F0608171816115C7
:10138000710541F0448155810E948B09CE01DF91A6
:10139000CF9108950E940A09F9CFFC0111821082B1
:1013A0001382128215821482FB0101900020E9F75A
:1013B0003197AF01461B570B0C948B09CF92DF92EC
:1013C000EF92FF920F931F93CF93DF936C017B01FA
:1013D0008A014617570720F48F2D7A01062F182F00
:1013E00069E671E0C6010E94CD09C0912104D09147
:1013F0002204EC16FD06F8F40C171D0708F4E801AA
:10140000E0911D04F0911E04EC0FFD1F108110826D
:1014100060911D0470911E046E0D7F1DC601611543
:10142000710599F00E94AC0980911D0490911E04F1
:10143000C80FD91F1883C601DF91CF911F910F915B
:10144000FF90EF90DF90CF9008950E940A09ECCFB3
:10145000CF92DF92EF92FF92CF93DF9300D000D034
:1014600000D0CDB7DEB74091210450912204682FFF
:1014700070E0CE0101960E94DE09CE0101960E9425
:10148000CD08CE0101960E941C090E94D801DC0102
:10149000EC91E03239F4409121045091220461E052
:1014A00070E0E7CF80ED8E0FC12CD12C76018A3011
:1014B00048F5AAE0B0E0A70196010E941019E05398
:1014C000FF0B6F01FF0FEE08FF08C60ED71EE81EC8
:1014D000F91E409121045091220461E070E0CE0198
:1014E00001960E94DE09CE0101960E94CD08CE0130
:1014F00001960E941C090E94D801DC01EC9180ED4C
:101500008E0FD5CFC701B60126960FB6F894DEBF71
:101510000FBECDBFDF91CF91FF90EF90DF90CF90C6
:1015200008950F931F93CF93DF9300D000D000D086
:10153000CDB7DEB78C016AE671E0CE0101960E945C
:10154000CD09B801CE0101960E9478090E94B80821
:10155000CE0101960E941C0926960FB6F894DEBFB4
:101560000FBECDBFDF91CF911F910F910895CF9204
:10157000DF92EF92FF926B017C01C114D104E10470
:10158000F10441F00E945617A70196010E94F1183C
:101590006B017C01C701B601FF90EF90DF90CF9007
:1015A00008954F925F926F927F928F929F92AF9227
:1015B000BF92CF92DF92EF92FF92CF93DF9368EECC
:1015C00073E080E090E00E94B70A6B017C0128EE96
:1015D000C20E23E0D21EE11CF11C0E946C06812C7D
:1015E000912C5401D0E0C0E0240135016CE677E095
:1015F00080E090E00E94B70A2FEF821A920AA20AB6
:10160000B20A6C597F4F8F4F9F4F64157505860541
:101610009705A4F0CE01880F991F8C0D9D1D40E009
:1016200050E0BA010E94EA0162E070E080E090E0E0
:101630000E94B70A0E9430062196D6CF0E94640607
:10164000812C912C54012401350164E873E080E081
:1016500090E00E94B70A2FEF821A920AA20AB20AF9
:101660006C597F4F8F4F9F4F641575058605970501
:1016700094F040E050E0BA01C6010E94EA0162E045
:1016800070E080E090E00E94B70A0E9430068AE095
:10169000C81AD108D8CFDF91CF91FF90EF90DF909B
:1016A000CF90BF90AF909F908F907F906F905F9002
:1016B0004F9008954F925F926F927F928F929F9278
:1016C000AF92BF92CF92DF92EF92FF92CF93DF93D0
:1016D00068EE73E080E090E00E94B70A6B017C0145
:1016E00028EEC20E23E0D21EE11CF11C0E946C0603
:1016F000812C912C5401D0E0C0E0240135016CE62E
:1017000077E080E090E00E94B70A3FEF831A930AE7
:10171000A30AB30A6C597F4F8F4F9F4F641575050D
:1017200086059705B4F0CE01880F991F9601281BF6
:10173000390BC90140E050E0BA010E94EA0162E0C1
:1017400070E080E090E00E94B70A0E943006219687
:10175000D4CF0E946406812C912C540124013501C0
:1017600064E873E080E090E00E94B70A3FEF831ADC
:10177000930AA30AB30A6C597F4F8F4F9F4F64158A
:1017800075058605970594F040E050E0BA01C60162
:101790000E94EA0162E070E080E090E00E94B70AF7
:1017A0000E9430068AE0C80ED11CD8CFDF91CF91BD
:1017B000FF90EF90DF90CF90BF90AF909F908F9071
:1017C0007F906F905F904F9008958F929F92AF920D
:1017D000BF92CF92DF92EF92FF920F931F93CF931E
:1017E000DF930E94800180910001882309F489C061
:1017F0001092000166E070E080E090E00E94B70A7D
:10180000DC01CB010196A11DB11D83309105A1051D
:10181000B10509F487C00CF078C081309105A105AD
:10182000B10509F48CC00297A105B10509F47CC08B
:10183000CAE5D0E0812C912C540153EBE52EF12C1C
:1018400064EBC62ED12C66E070E080E090E00E9450
:10185000B70A6D5F7F4F8F4F9F4F681579058A05D7
:101860009B050CF46FC00E946C0664E77EE080E08C
:1018700090E00E94B70ADC01CB01845A9640A1098E
:10188000B1098053984F40E050E0BA010E94EA014C
:10189000209100018091780290917902222309F42D
:1018A0000BC197012C1B3D0B2817390754F08601FB
:1018B0000C1B1D0BC8010E94E500109379020093D8
:1018C000780264E670E080E090E00E94B70A6A5B0C
:1018D0007F4F8F4F9F4F0E9430060E9464068AE020
:1018E0000E94DF056EE170E080E090E00E94B70AA0
:1018F0000E9430068FEF881A980AA80AB80A2B9718
:10190000A2CF81E08093000175CF85309105A105BC
:10191000B10569F084F00697A105B10509F088CFFB
:101920000E94D10A0E945A0B0E94D10A81CF0E94C4
:101930005A0B0E94D10A0E945A0B0E94D10A0E949F
:101940005A0B76CF8AE00E94DF0580910001811159
:1019500044C020917802309179026AE570E0621B00
:10196000730B80ED97E00E94451C709377026093A3
:10197000760230937502209374024AE0C42ED12C73
:10198000E12CF12C80917402909175028B359105B8
:1019900024F50E94E5000E945617A70196010E94B7
:1019A000F11863307105B4F00E946C066091760204
:1019B00070917702072E000C880B990B0E9430065D
:1019C00080917402909175020196909375028093B4
:1019D0007402D8CF0E946406E9CF80910001882369
:1019E00009F443C02091780230917902B9016A5517
:1019F000710980ED97E00E94451C70937702609317
:101A0000760230937502209374023AE0C32ED12CF3
:101A1000E12CF12C80917402909175028A35910528
:101A200024F10E94E5000E945617A70196010E942A
:101A3000F11863307105B4F00E946C066091760273
:101A400070917702072E000C880B990B0E943006CC
:101A50008091740290917502019790937502809322
:101A60007402D8CF0E946406E9CF0E9464060E94E7
:101A7000561728EE33E040E050E00E94F1180E9433
:101A80003006E091F6038E2F90E0FC01EE0FFF1F71
:101A9000E80FF91FE353FC4F80818F7B8083DF9138
:101AA000CF911F910F91FF90EF90DF90CF90BF905B
:101AB000AF909F908F900895C817D9070CF001CF71
:101AC000CE010E94E500D0937902C0937802F9CE4E
:101AD0000C94E318CF93C82F84E791E00E94B608D6
:101AE0006C2F70E090E080E04AE00E94390887E6C1
:101AF00091E00E942C086C2F80911703909118039D
:101B00000E94680D8091170390911803019690939D
:101B1000180380931703CF9108950C94DB18682F56
:101B200070E090E080E00E94BC179B01AC016EEA7F
:101B300077E481EA9FE30E94331A26E636E646E41C
:101B400052E40E941D180E94FD19CB0108952F92A6
:101B50003F924F925F926F927F928F929F92AF923D
:101B6000BF92CF92DF92EF92FF920F931F93CF938A
:101B7000DF9300D000D000D0CDB7DEB7E0901703E0
:101B8000F09018033AE0232E312CE11424E0F20601
:101B90000CF0E9C0C7010E948D0DD82E082F10E06F
:101BA000C8010E949E088FE791E00E94B6080F3F8F
:101BB000110509F4D8C00A3F1105F9F43FEFE31A03
:101BC000F30AC7010E948D0D182F90E00E949E0815
:101BD00083E891E00E94B608812F0E9474069093DA
:101BE0001503809314030E949E088DE891E00E94E3
:101BF000A8083FEFE31AF30AC8CFC801805F910934
:101C00000A97A8F480E18D0D8093050181E991E0A8
:101C10000E94B6086091050170E090E080E04AE023
:101C20000E94390887E691E00E942C08E2CF003F2D
:101C300011050CF089C0C801083711050CF073C0FC
:101C4000B1010E94451C6B0146EF4603C001479F4E
:101C5000900D1124080F191F6091050170E090E0AC
:101C600080E00E94BC179B01AC0160E070E080E066
:101C700090E40E94331AF601EE0FFF1FEE0FFF1FD4
:101C8000ED5EFE4F20813181428153810E941D18FB
:101C90002B013C01802F0E948F0D90937302809343
:101CA000720289E991E00E94B608C6010E949E086E
:101CB0008FE991E00E94B6088091720290917302C0
:101CC0000E949E0883EA91E00E94A8088091050185
:101CD00061E08530B8F18DE00E949305809072023A
:101CE00090907302092C000CAA08BB08C301B20132
:101CF0000E94041ACB01B501A4010E94EA01C501AA
:101D0000B4010E9430060E9464068AE00E94DF054A
:101D10006091140370911503072E000C880B990B2A
:101D20000E94300666CF88579109B1010E94451C78
:101D30006B010E56110926EF2603C001279F900D57
:101D4000112488CF88E0C8CF67EA71E0CE01019600
:101D50000E94CD09CE0101960E94910ACE01019602
:101D60000E941C0946CF26960FB6F894DEBF0FBE20
:101D7000CDBFDF91CF911F910F91FF90EF90DF903A
:101D8000CF90BF90AF909F908F907F906F905F901B
:101D90004F903F902F9008951F920F920FB60F9281
:101DA00011242F933F934F935F936F937F938F9360
:101DB0009F93AF93BF93EF93FF93809123039091F1
:101DC0002403A0912503B0912603892B8A2B8B2B0A
:101DD000D1F190911E03E0911F03F09120038081C7
:101DE000892780838091230390912403A091250368
:101DF000B0912603181619061A061B069CF480914A
:101E0000230390912403A0912503B0912603019709
:101E1000A109B1098093230390932403A093250380
:101E2000B0932603FF91EF91BF91AF919F918F9156
:101E30007F916F915F914F913F912F910F900FBEC6
:101E40000F901F901895809106010E94DF05EACF40
:101E50001F920F920FB60F9211242F933F934F931F
:101E60005F936F937F938F939F93AF93BF93EF9302
:101E7000FF9380E393E00E940405FF91EF91BF91EF
:101E8000AF919F918F917F916F915F914F913F9112
:101E90002F910F900FBE0F901F9018951F920F92C9
:101EA0000FB60F9211242F938F939F93EF93FF936D
:101EB000E0914003F09141038081E0914603F0916D
:101EC000470382FD1BC09081809149038F5F8F7310
:101ED00020914A03821741F0E0914903F0E0E05D70
:101EE000FC4F958F80934903FF91EF919F918F91C4
:101EF0002F910F900FBE0F901F9018958081F4CFF7
:101F00001F920F920FB60F9211242F933F938F932E
:101F10009F93AF93BF9380911A0390911B03A0915D
:101F20001C03B0911D0330910D0323E0230F2D37C7
:101F300058F50196A11DB11D20930D0380931A033E
:101F400090931B03A0931C03B0931D0380910E0379
:101F500090910F03A0911003B09111030196A11D60
:101F6000B11D80930E0390930F03A0931003B093C1
:101F70001103BF91AF919F918F913F912F910F903E
:101F80000FBE0F901F90189526E8230F0296A11DF3
:101F9000B11DD2CF1F920F920FB60F9211242F9323
:101FA0003F934F935F936F937F938F939F93AF93E1
:101FB000BF93EF93FF93E0910301F0910401099522
:101FC000FF91EF91BF91AF919F918F917F916F9111
:101FD0005F914F913F912F910F900FBE0F901F90E7
:101FE00018951F920F920FB60F9211242F933F93C3
:101FF0004F935F936F937F938F939F93AF93BF9311
:10200000EF93FF93E0910101F09102010995FF9197
:10201000EF91BF91AF919F918F917F916F915F9160
:102020004F913F912F910F900FBE0F901F901895D9
:102030001F920F920FB60F9211242F933F934F933D
:102040005F936F937F938F939F93AF93BF93CF9340
:10205000DF93EF93FF9380910C03C091F103D0E0E5
:1020600087FF24C0109285001092840080910C0399
:102070008F5F80930C0380910C03082E000C990B4A
:102080008C179D0724F480910C038C30C4F180914F
:10209000840090918500049680349C4908F47AC0AD
:1020A0008091840090918500049676C080910C0305
:1020B000082E000C990B8C179D07C4F6E0910C03B9
:1020C0008E2FEE0F990BFC01EE0FFF1FE80FF91F8B
:1020D000E353FC4F808186FFC9CFE0910C038E2F24
:1020E000EE0F990BFC01EE0FFF1FE80FF91FE353F2
:1020F000FC4F808160E08F730E949305B7CF2091E1
:10210000840030918500E0910C038E2FEE0F990B27
:10211000FC01EE0FFF1FE80FF91FE353FC4F818115
:102120009281820F931F9093890080938800E091A1
:102130000C038E2FEE0F990BFC01EE0FFF1FE80F23
:10214000F91FE353FC4F808186FF11C0E0910C031F
:102150008E2FEE0F990BFC01EE0FFF1FE80FF91FFA
:10216000E353FC4F808161E08F730E949305FF91E0
:10217000EF91DF91CF91BF91AF919F918F917F911F
:102180006F915F914F913F912F910F900FBE0F90E4
:102190001F90189580E49CE99093890080938800B3
:1021A0008FEF80930C03E3CFCF93DF931092330331
:1021B0001092320388EE93E0A0E0B0E08093340305
:1021C00090933503A0933603B093370389E591E0EC
:1021D000909331038093300385EC90E090933D031E
:1021E00080933C0384EC90E090933F0380933E0304
:1021F00080EC90E0909341038093400381EC90E069
:10220000909343038093420382EC90E090934503C4
:102210008093440386EC90E09093470380934603B9
:102220001092490310924A0310924B0310924C03F0
:10223000CFEFDFEFD0932604C09325048AE090E02F
:10224000909328048093270449E050E06BE371E009
:1022500089E294E00E94AE17D0932404C093230433
:102260008CE390E090930801809307011092F203B1
:102270001092F3031092F4031092F50369E671E0F3
:102280008DE194E00E94CD0966EB71E089EF93E067
:102290000E94CD096BEB71E08FEF93E00E94CD09B6
:1022A0006EEB71E085E094E00E94CD0964EC71E092
:1022B0008BE094E00E94CD096BEC71E081E194E049
:1022C0000E94CD096FEC71E087E194E00E94CD0996
:1022D0008091F1038C30A8F491E0980F9093F10372
:1022E0008093F60390E0FC01EE0FFF1FE80FF91F4B
:1022F000E353FC4F88EB9BE092838183DF91CF9186
:1023000008958FEF8093F603F9CFCF93DF93CDB786
:10231000DEB764970FB6F894DEBF0FBECDBF7894DA
:1023200084B5826084BD84B5816084BD85B58260DA
:1023300085BD85B5816085BD80916E00816080938B
:102340006E001092810080918100826080938100F4
:102350008091810081608093810080918000816004
:10236000809380008091B10084608093B10080915F
:10237000B00081608093B00080917A008460809387
:102380007A0080917A00826080937A0080917A004E
:10239000816080937A0080917A00806880937A00CF
:1023A0001092C100E0914003F091410382E08083EC
:1023B000E0913C03F0913D031082E0913E03F091E7
:1023C0003F0380E1808310924803E0914403F09141
:1023D000450386E08083E0914203F09143038081CE
:1023E00080618083E0914203F091430380818860A3
:1023F0008083E0914203F091430380818068808371
:10240000E0914203F091430380818F7D808384EDCE
:1024100091E00E94A80810922404109223041092C4
:10242000F2031092F3031092F4031092F50310924A
:1024300013031092120388EC96E0909302018093AC
:102440000101809169008C7F816080936900E89A26
:102450008AE00E9461018DE00E94610188E00E9493
:10246000610180E480937C0080917A008064809395
:102470007A0080917A0086FDFCCF8091780060918F
:102480007900762F682F072E000C880B990B6115A9
:1024900071058105910511F00E94A51785E00E9444
:1024A000610186E00E9461010E9480018AE590E05E
:1024B0000E94E50068EE73E080E090E00E94300644
:1024C000E091F6038E2F90E0FC01EE0FFF1FE80F66
:1024D000F91FE353FC4F80818F7B80838091F2034F
:1024E0009091F303A091F403B091F503892B8A2B0B
:1024F0008B2BC9F04090F2035090F3036090F403EB
:102500007090F503411451046104710471F587ED75
:1025100091E00E94B6081092F2031092F303109219
:10252000F4031092F50380E393E00E94E40418168C
:1025300019060CF031C269E671E0CE0107960E94DF
:10254000CD090E94960497FDEEC08A30910509F4EA
:10255000EAC089831A8241E050E0BE016F5F7F4F7D
:10256000CE0107960E944C09ECCF8BED91E00E94C2
:10257000B60877FE70C0C301B2010E947D0887E6ED
:1025800091E00E942C0833E4832E31E0932E10E07A
:1025900000E0F401A1904F01B12CC5010E948D0D06
:1025A000C82EC50101960E948D0DF82EC501029618
:1025B0000E948D0DE82EC50103960E948D0D4F2DB2
:1025C00050E070E060E0762F652F542F44274C0DCB
:1025D000511D611D711DCE2CD12CF12CE12C7601E9
:1025E000DD24CC244C0D5D1D6E1D7F1D90E0B0E000
:1025F000A0E0B82FAA2799278827840F951FA61F28
:10260000B71F481659066A067B0641F00F5F1F4F39
:102610000131110509F0BDCF0FEF1FEF87E490E006
:102620000E948D0D0930110524F0813011F40950FC
:1026300011090930110508F06ECFF801EE5DFC4E6E
:102640000C94591C3113361343135213691372132C
:10265000751378137F134AE0C301B2010E94390851
:102660008ECF0E94E50B0E94E50B55CF61E085E01F
:102670000E94930564E670E080E090E00E943006DE
:1026800060E085E00CC061E086E00E9493056CE3A9
:1026900070E080E090E00E94300660E086E00E94FA
:1026A000930539CF61E085E00E94930561E086E003
:1026B0000E9493056CE370E080E090E00E94300699
:1026C00060E086E00E94930568E270E080E090E0C0
:1026D000D5CF88E490E090931803809317030E946D
:1026E000A70D19CF86E391E0F6CF84E292E0F3CF15
:1026F00022E133E03093180320931703F0CF8111C8
:102700000AC061E087E490E00E94680D8FED91E0DF
:102710000E94A80800CF60E087E490E00E94680D66
:1027200089EE91E0F5CF1A8219821C821B821E82EB
:102730001D82BE01695F7F4FCE0101960E94B609DE
:1027400041E050E061EA71E0CE0101960E944C093F
:10275000811104C0CE0101960E940A09BE016F5F7B
:102760007F4F8DE194E00E94B609CE0101960E9450
:102770001C09CE0107960E941C0964EF71E0CE018E
:1027800001960E94CD096DE174E0CE0101960E9490
:1027900078098C0141E050E064EF71E00E944C093F
:1027A000811103C0C8010E940A09C8010E94B8082B
:1027B000CE0101960E941C0981E080931903E090EC
:1027C0002104F0902204222423944DE0C42E5AE0E8
:1027D000D52E0E94D801FC01008139EFA32E33E0F1
:1027E000B32E10E00032B1F4A70161E070E0CE0139
:1027F00001960E94DE09CE0101960E94CD08CE010D
:1028000001960E941C0980911903882311F32092DC
:102810001903DFCFF5014481558170E060E0CE01FE
:1028200001960E94DE092D813E81F501848195810A
:102830002817390711F589819A8160817181009784
:1028400059F06115710509F07DC0232B09F47DC095
:10285000FC01808190E00DC06115710509F475C01F
:10286000232B09F472C0FB01808190E09195819542
:10287000910988248394892B09F0812CCE0101963B
:102880000E941C09811064C01F5FF6E0AF0EB11CEE
:10289000163009F0BFCF8091210490912204892B3A
:1028A00009F46EC080ED800F8A3008F011C180916C
:1028B0001903813009F00CC1A0900501B12C0E94D0
:1028C000D801FC0180818053990BA816B90639F113
:1028D0000E94D801FC01808190ED980F9093050132
:1028E00080548093160381E991E00E94B6086091BC
:1028F000050170E090E080E04AE00E9439088EE037
:1029000092E00E94B6086091160370E090E080E0CB
:102910004AE00E943908809116030E946A0D82E005
:1029200080931903A70161E070E0CE0101960E9437
:10293000DE09CE0101960E94CD08CE0101960E94CB
:102940001C091EC00E944A1E94CF8824839496CFEF
:10295000133009F496C068F5113009F452C01230F2
:1029600009F47CC084E00E94280ACB010E94AF06D3
:10297000909318038093170320921903C0921603B3
:10298000E0902104F09022041E141F040CF421CFC7
:1029900089E692E00E94A80880E090E0892B09F483
:1029A0009DCD0E94F004882309F498CD0E94000078
:1029B00095CD143009F476C01530A1F684E00E945C
:1029C000280ACB010E94AF06909318038093170347
:1029D0001092190369E671E08DE194E00E94AC0960
:1029E0008FEF91E00E94B608809117039091180331
:1029F0000E949E0887E691E00E942C080E94A70D85
:102A0000BFCF82E00E94280A6D5B7E4FFB01E08011
:102A10000E2D10E081E00E94280A4B015C01C801E4
:102A20000E94680D9927B7FC9A958B2D7A2D692DF8
:102A3000C80101960E94680DB501992777FD909510
:102A4000892FC80102960E94680D6B2D7727882771
:102A50009927C80103960E94680D92CFA70165E0EF
:102A600070E0CE0101960E94DE09CE0101960E941F
:102A7000CD08CE0101960E941C0961E087E490E038
:102A8000EACFA70166E070E0CE0101960E94DE0960
:102A9000CE0101960E94CD08CE0101960E941C092C
:102AA00060E0ECCF69E671E08DE194E00E94AC0952
:102AB0001092190386EF91E00E94B60880911703E7
:102AC000909118030E949E088FEF0E946A0D58CFC4
:102AD0008CEB800F803308F05AC180911903882352
:102AE00009F455C1033509F498C010F5093409F407
:102AF00098C0A0F4043481F1063409F48CC061E17B
:102B000072E0CE0101960E94CD09CE0101960E948D
:102B1000910ACE0101960E941C091FC00D3409F4D0
:102B200078C0023509F471C00C3449F719E015C0BA
:102B3000063699F038F4043509F475C00436F9F610
:102B400011E00BC0023709F462C0033709F467C013
:102B50000C36A9F61AE001C010E01093160381E0CC
:102B60000E94280A4B0184E0809319031A3F09F060
:102B70009DC086E292E00E94B6088AEF0E946A0D2C
:102B8000FDE78F16F5E19F060CF081C02FEB821652
:102B90002AE092060CF449C0C4018E5B9A4067E3B8
:102BA00070E00E94451C68537F4F072E000C880B75
:102BB000990B0E94BE172B013C018CE292E00E940F
:102BC000B608C4010E949E088EE092E00E94B608FA
:102BD000C301B2010E94FD19162F972F312E812FAC
:102BE0000E949E0883E392E00E94B608812F0E9413
:102BF000740690931503809314030E949E0885E346
:102C000092E00E94B608832D60CF12E0A6CF13E0B9
:102C1000A4CF14E0A2CF15E0A0CF17E09ECF18E01C
:102C20009CCF1BE09ACF1AEF98CF3DED831635E08D
:102C3000930654F0C4018C5D954069E170E00E94F8
:102C4000451C6A567F4FB1CF8FEE881682E09806FA
:102C500054F0C4018E5E92406FE070E00E94451C0B
:102C60006C597F4FA2CF9BEF8916910454F0C40199
:102C70008A5F91096AE070E00E94451C6E5C7F4F9C
:102C800094CFC40165E070E00E94451C8ECF69E3DB
:102C900072E0CE0101960E94CD09CE0101960E94FC
:102CA000910ACE0101960E941C09ADCFB401092CF6
:102CB000000C880B990B0E94BE1726E636E646E408
:102CC00052E40E948B192B013C01F12CE12C2DECDC
:102CD0003CEC4CE85FE3C301B2010E94B71787FFE9
:102CE00043C084E492E00E94B608812F90E00E94E5
:102CF0009E088AE492E00E94B608C4010E949E08E1
:102D00008EE092E00E94B608C7010E949E0883E30D
:102D100092E00E94B6088E2D0E948F0D0E949E08A0
:102D200085E392E00E94B6081D9DC0011124EAE0EF
:102D3000EE16F1048CF49C012E0D3F1D3C8B2B8B69
:102D4000809105018A3031F484E08093050184EF9D
:102D50000E946A0D8B89B9CE8E0D9F1DFC01E25930
:102D6000FF4FFC8BEB8BECCF2EEA37E441EA5FE3BD
:102D7000C301B2010E948B192B013C01FFEFEF1A36
:102D8000FF0A25E1E216F10409F0A1CFE3CF41E00B
:102D900050E070E060E0CE0107960E94DE0964E535
:102DA00072E0CE010D960E94CD09BE01695F7F4F92
:102DB000CE010D960E9478091A8219821C821B820C
:102DC0001E821D82BC01CE0101960E94B609CE0171
:102DD00001960E94910ACE0101960E941C09CE0123
:102DE0000D960E941C09CE0107960E941C099ACDDF
:102DF000CF93DF93CDE1D4E02697CE010E941C094A
:102E000083E0C93FD807C1F78DE194E0DF91CF910E
:102E10000C941C098F929F92AF92BF92CF92DF9237
:102E2000EF92FF92CF93DF93EC01688179818A81E1
:102E30009B81611571058105910521F464E279EDAD
:102E40008BE597E02DE133EF41E050E00E94F1186F
:102E500049015A019B01AC01A7EAB1E40E94101993
:102E60006B017C01ACEEB4EFA50194010E941E1928
:102E7000C60ED71EE81EF91EF7FE06C081E0C81A6E
:102E8000D108E10880E8F80AC882D982EA82FB8288
:102E9000C701B6019F77DF91CF91FF90EF90DF9050
:102EA000CF90BF90AF909F908F9008958F929F92F8
:102EB000AF92BF92CF92DF92EF92FF9260910901A1
:102EC00070910A0180910B0190910C0161157105BF
:102ED0008105910521F464E279ED8BE597E02DE120
:102EE00033EF41E050E00E94F11849015A019B0183
:102EF000AC01A7EAB1E40E9410196B017C01ACEEB1
:102F0000B4EFA50194010E941E19C60ED71EE81E3B
:102F1000F91EF7FE06C081E0C81AD108E10880E872
:102F2000F80AC0920901D0920A01E0920B01F092D6
:102F30000C01C701B6019F77FF90EF90DF90CF9013
:102F4000BF90AF909F908F90089560930901709308
:102F50000A0180930B0190930C010895FB01DC01A1
:102F600002C005900D9241505040D8F708950E943C
:102F7000F91708F481E00895E89409C097FB3EF43E
:102F800090958095709561957F4F8F4F9F4F9923B6
:102F9000A9F0F92F96E9BB279395F6958795779534
:102FA0006795B795F111F8CFFAF4BB0F11F460FFF4
:102FB0001BC06F5F7F4F8F4F9F4F16C0882311F04C
:102FC00096E911C0772321F09EE8872F762F05C060
:102FD000662371F096E8862F70E060E02AF09A95FB
:102FE000660F771F881FDAF7880F9695879597F9F0
:102FF0000895990F0008550FAA0BE0E8FEEF16168A
:103000001706E807F907C0F012161306E407F507DC
:1030100098F0621B730B840B950B39F40A2661F050
:10302000232B242B252B21F408950A2609F4A140F3
:10303000A6958FEF811D811D08950E9430180C9474
:10304000A1180E94931838F00E949A1820F0952336
:1030500011F00C948A180C94901811240C94D51823
:103060000E94B21870F3959FC1F3950F50E0551F61
:10307000629FF001729FBB27F00DB11D639FAA27CD
:10308000F00DB11DAA1F649F6627B00DA11D661F1C
:10309000829F2227B00DA11D621F739FB00DA11D3D
:1030A000621F839FA00D611D221F749F3327A00DF7
:1030B000611D231F849F600D211D822F762F6A2F93
:1030C00011249F5750409AF0F1F088234AF0EE0FF8
:1030D000FF1FBB1F661F771F881F91505040A9F725
:1030E0009E3F510580F00C948A180C94D5185F3FD0
:1030F000E4F3983ED4F3869577956795B795F79561
:10310000E7959F5FC1F7FE2B880F911D96958795D8
:1031100097F9089597F99F6780E870E060E0089557
:103120009FEF80EC089500240A94161617061806DF
:103130000906089500240A941216130614060506BB
:103140000895092E0394000C11F4882352F0BB0F4C
:1031500040F4BF2B11F460FF04C06F5F7F4F8F4FAF
:103160009F4F089557FD9058440F551F59F05F3FEA
:1031700071F04795880F97FB991F61F09F3F79F099
:1031800087950895121613061406551FF2CF46951B
:10319000F1DF08C0161617061806991FF1CF86959D
:1031A0007105610508940895E894BB276627772781
:1031B000CB0197F90895F999FECF92BD81BDF89A98
:1031C000992780B50895262FF999FECF1FBA92BD91
:1031D00081BD20BD0FB6F894FA9AF99A0FBE0196F8
:1031E0000895052E97FB1EF400940E94081957FDC0
:1031F00007D00E945A1907FC03D04EF40C9408190A
:1032000050954095309521953F4F4F4F5F4F089512
:1032100090958095709561957F4F8F4F9F4F089542
:103220000E947C19A59F900DB49F900DA49F800DC6
:10323000911D11240895B7FF0C9410190E941019C4
:10324000821B930B08952F923F924F925F926F9241
:103250007F928F929F92AF92BF92CF92DF92EF9226
:10326000FF920F931F93CF93DF93CDB7DEB7CA1BA7
:10327000DB0B0FB6F894DEBF0FBECDBF09942A88D2
:10328000398848885F846E847D848C849B84AA847A
:10329000B984C884DF80EE80FD800C811B81AA8107
:1032A000B981CE0FD11D0FB6F894DEBF0FBECDBFD2
:1032B000ED010895A1E21A2EAA1BBB1BFD010DC052
:1032C000AA1FBB1FEE1FFF1FA217B307E407F507D6
:1032D00020F0A21BB30BE40BF50B661F771F881FB2
:1032E000991F1A9469F760957095809590959B0148
:1032F000AC01BD01CF010895A29FB001B39FC001F1
:10330000A39F700D811D1124911DB29F700D811D11
:103310001124911D08950E949F190C94A1180E94D8
:103320009A1858F00E94931840F029F45F3F29F052
:103330000C948A1851110C94D5180C9490180E9472
:10334000B21868F39923B1F3552391F3951B550BEC
:10335000BB27AA2762177307840738F09F5F5F4F68
:10336000220F331F441FAA1FA9F335D00E2E3AF0A7
:10337000E0E832D091505040E695001CCAF72BD0BF
:10338000FE2F29D0660F771F881FBB1F2617370710
:103390004807AB07B0E809F0BB0B802DBF01FF2742
:1033A00093585F4F3AF09E3F510578F00C948A187D
:1033B0000C94D5185F3FE4F3983ED4F38695779547
:1033C0006795B795F7959F5FC9F7880F911D9695FB
:1033D000879597F90895E1E0660F771F881FBB1F57
:1033E000621773078407BA0720F0621B730B840B04
:1033F000BA0BEE1F88F7E09508950E94041A6894AE
:10340000B1110C94D51808950E94BA1888F09F57EE
:1034100098F0B92F9927B751B0F0E1F0660F771FF8
:10342000881F991F1AF0BA95C9F714C0B13091F0EE
:103430000E94D418B1E008950C94D418672F782F07
:103440008827B85F39F0B93FCCF3869577956795B3
:10345000B395D9F73EF490958095709561957F4F1F
:103460008F4F9F4F0895FA01EE0FFF1F30962105F1
:103470003105A1F16115710561F48038BFE39B0747
:1034800049F168949038810561F08038BFEF9B075F
:1034900041F099234AF5FF3FE1053105210519F176
:1034A000E8940894E795D901AA2329F4AB2FBE2FFD
:1034B000F85FD0F310C0FF5F70F4A695E0F7F7391E
:1034C00050F019F0FF3A38F49F779F930DD00F908A
:1034D00007FC9058089546F00C94901860E070E056
:1034E00080E89FE308954FE79F775F934F933F9363
:1034F0002F930E942E1B2F913F914F915F910E941D
:103500001D180C948B1A29F416F00C948A180C943C
:10351000D4180C9490180E94BA18A8F39638A0F703
:1035200007F80F92E8942BE33AEA48EB5FE70E9432
:1035300033180F920F920F924DB75EB70F920E9401
:10354000761BE8E6F0E00E94BD1A4F915F91EF9183
:10355000FF91E595EE1FFF1F49F0FE57E0684427F5
:10356000EE0F441FFA95E1F74195550B0E94F01AB2
:103570000F9007FE0C94E41A0895DF93CF931F93E6
:103580000F93FF92EF92DF927B018C01689406C04B
:10359000DA2EEF010E943018FE01E894A5912591E2
:1035A000359145915591A6F3EF010E94C21BFE0192
:1035B0009701A801DA9469F7DF90EF90FF900F91DF
:1035C0001F91CF91DF9108959B01AC0160E070E005
:1035D00080E89FE30C948B190C948A180C94171CA8
:1035E0000E94BA18D8F39923C9F3940F511DA3F37D
:1035F0009150504094F059F0882332F0660F771FB5
:10360000881F91505040C1F79E3F51052CF7880FFD
:10361000911D9695879597F908955F3FACF0983E78
:103620009CF0BB27869577956795B79508F4B160B0
:103630009395C1F7BB0F58F711F460FFE8CF6F5FA8
:103640007F4F8F4F9F4FE3CF0C94D51816F00C94FB
:10365000171C0C94901868940C948A180E94BA183D
:10366000A8F39923C1F3AEF3DF93CF931F930F9386
:10367000FF92C92FDD2788232AF02197660F771F35
:10368000881FDAF720E030E040E85FEB9FE38839FD
:1036900020F0803E38F021968F770E94AB1BE0E946
:1036A000F0E004C00E94AB1BEDEBF0E00E94BD1AFD
:1036B0008B01BE01EC01FB2E6F5771097595771FC9
:1036C000880B990B0E94BE1728E132E741E35FE3C4
:1036D0000E943018AF2D9801AE01FF900F911F91FD
:1036E000CF91DF910E94C21B0C94A118FA01DC015A
:1036F000AA0FBB1F9B01AC01BF5728F42227332719
:103700004427507820C0B75190F4AB2F0024469541
:1037100037952795011CA395D2F3002071F0220F55
:10372000331F441FB395DAF30ED00C94AA1B6130FB
:103730007105A0E88A07B94630F49B01AC01662701
:10374000772788279078309621F020833183428331
:10375000538308955058BB27AA270E94C21B0C947C
:10376000A1180E94931838F00E949A1820F039F49A
:103770009F3F19F426F40C9490180EF4E095E7FBA3
:103780000C948A18E92F0E94B21858F3BA176207EE
:1037900073078407950720F079F4A6F50C94D418E4
:1037A0000EF4E0950B2EBA2FA02D0B01B90190015C
:1037B0000C01CA01A0011124FF27591B99F0593FA0
:1037C00050F4503E68F11A16F040A22F232F342FE8
:1037D0004427585FF3CF469537952795A795F04036
:1037E0005395C9F77EF41F16BA0B620B730B840B4B
:1037F000BAF09150A1F0FF0FBB1F661F771F881F03
:10380000C2F70EC0BA0F621F731F841F48F487955A
:1038100077956795B795F7959E3F08F0B0CF93954C
:10382000880F08F09927EE0F9795879508959F3F89
:1038300031F0915020F4879577956795B795880F6B
:10384000911D9695879597F90895991B79E004C085
:10385000991F961708F0961B881F7A95C9F78095CF
:103860000895AA1BBB1B51E107C0AA1FBB1FA617C7
:10387000B70710F0A61BB70B881F991F5A95A9F719
:1038800080959095BC01CD01089597FB072E16F405
:10389000009407D077FD09D00E94311C07FC05D0A9
:1038A0003EF4909581959F4F0895709561957F4F57
:1038B0000895EE0FFF1F0590F491E02D09940F93EA
:1038C0001F93CF93DF938230910510F482E090E054
:1038D000E0913404F091350430E020E0B0E0A0E065
:1038E000309799F42115310509F44AC0281B390B8A
:1038F00024303105D8F58A819B816115710589F1E4
:10390000FB0193838283FE0111C0408151810281BA
:10391000138148175907E0F04817590799F4109791
:1039200061F012960C93129713961C933296CF0166
:10393000DF91CF911F910F9108950093340410935C
:103940003504F4CF2115310551F04217530738F0F3
:10395000A901DB019A01BD01DF01F801C1CFEF012F
:10396000F9CF9093350480933404CDCFFE01E20F5C
:10397000F31F819391932250310939832883D7CF44
:103980002091320430913304232B41F420910F0114
:1039900030911001309333042093320420910D01B3
:1039A00030910E012115310541F42DB73EB74091FC
:1039B000110150911201241B350BE0913204F0915A
:1039C0003304E217F307A0F42E1B3F0B2817390727
:1039D00078F0AC014E5F5F4F2417350748F04E0F6B
:1039E0005F1F5093330440933204819391939FCF90
:1039F000F0E0E0E09CCFCF93DF930097E9F0FC018B
:103A0000329713821282A0913404B0913504ED01F3
:103A100030E020E01097A1F420813181820F931FC4
:103A200020913204309133042817390709F061C01E
:103A3000F0933304E0933204DF91CF910895EA01CB
:103A4000CE17DF07E8F54A815B819E0141155105DC
:103A5000B1F7E901FB83EA8349915991C40FD51F5E
:103A6000EC17FD0761F4808191810296840F951F08
:103A7000E90199838883828193819B838A83F0E023
:103A8000E0E012968D919C9113970097B9F52D91D6
:103A90003C911197CD010296820F931F2091320421
:103AA000309133042817390739F6309751F51092C1
:103AB000350410923404B0933304A0933204BCCF85
:103AC000D383C28340815181840F951FC817D907C2
:103AD00061F44E5F5F4F88819981480F591F518370
:103AE00040838A819B81938382832115310509F06C
:103AF000B0CFF0933504E09334049ECFFD01DC0198
:103B0000C0CF13821282D7CFB0E0A0E0EAE8FDE197
:103B10000C9425198C01009751F4CB010E945F1C75
:103B20008C01C801CDB7DEB7E0E10C944119FC016E
:103B3000E60FF71F9C0122503109E217F30708F442
:103B40009DC0D901CD91DC911197C617D70798F088
:103B5000C530D10530F3CE0104978617970708F3D7
:103B6000C61BD70B2297C193D1936D937C93CF0142
:103B70000E94FB1CD6CF5B01AC1ABD0A4C018C0E17
:103B80009D1EA0913404B0913504512C412CF12C90
:103B9000E12C109731F5809132049091330488150F
:103BA000990509F05CC04616570608F058C0809188
:103BB0000D0190910E01009741F48DB79EB7409191
:103BC000110150911201841B950BE817F90708F0B9
:103BD00055C0F0933304E0933204F901718360839C
:103BE000A0CF8D919C91119712966C90129713967D
:103BF0007C901397A815B90559F56C0142E0C40EE5
:103C0000D11CCA14DB0420F1AC014A195B09DA01AA
:103C10001296159780F06282738251834083D90196
:103C20006D937C93E114F10471F0D7011396FC932A
:103C3000EE93129776CF22968C0F9D1FF9019183F8
:103C40008083F301EFCFF0933504E093340469CF20
:103C50004816590608F42C017D01D3019ACFCB01F7
:103C60000E945F1C7C01009749F0AE01B8010E94E0
:103C7000411EC8010E94FB1C870153CF10E000E0E9
:103C800050CFFB01DC0102C001900D924150504029
:103C9000D8F70895FB01DC018D9101908019011086
:103CA000D9F3990B0895FB01DC0101900D920020DE
:103CB000E1F7089510E0CAEBD0E004C0FE010E94D5
:103CC000591C2196CB3BD107C9F7F894FFCF01636C
:103CD0000663060AFF3C0001000000000036048075
:103CE0000014D0824159978A41FED492412E909B74
:103CF0004148D0A441159DAE412EFFB84163FFC39A
:103D000041E9A6CF410000DC41E414E941D8F0F6D6
:103D1000410004080C1014181C2024282C303438BE
:103D20003C4047000000002605460473047305E488
:103D3000048204D6040D0A006572726F722E2E2E54
:103D40002000203E454550524F4D3A20002D3E2048
:103D5000002D3E2050617573655F005F6D53006FED
:103D600063746176615F006E6F74612000202D20A6
:103D700000206D53006C6563747572612045455079
:103D8000524F4D00736F6E6700726600616C744F26
:103D90004E00616C744F464600656E6400706C6145
:103DA00079004F4B004E6F6B0052463E0052465F0B
:103DB000326E64204F4E0052465F326E64204F4692
:103DC0004600270050756E7465726F3A00706C6122
:103DD0007920616464726573733A20002D3E006E31
:103DE0006F7461206E6F206964656E7469666963C3
:103DF0006164610050617573650070617573655F22
:103E00000028006D53290050617573653E353530CB
:103E100030006E6F74615F00202B2054656D706FF1
:103E20005F0053657269616C20646573636F6E6FC8
:103E30006369646F3A2000486563686F2E2E000046
:107800000C94343C0C94513C0C94513C0C94513CE1
:107810000C94513C0C94513C0C94513C0C94513CB4
:107820000C94513C0C94513C0C94513C0C94513CA4
:107830000C94513C0C94513C0C94513C0C94513C94
:107840000C94513C0C94513C0C94513C0C94513C84
:107850000C94513C0C94513C0C94513C0C94513C74
:107860000C94513C0C94513C11241FBECFEFD8E036
:10787000DEBFCDBF11E0A0E0B1E0ECE9FFE702C060
:1078800005900D92A230B107D9F712E0A2E0B1E065
:1078900001C01D92AD30B107E1F70E942D3D0C945F
:1078A000CC3F0C94003C982F959595959595959582
:1078B000905D8F708A307CF0282F295A8091C0000B
:1078C00085FFFCCF9093C6008091C00085FFFCCF60
:1078D0002093C6000895282F205DF0CF982F809127
:1078E000C00085FFFCCF9093C6000895EF92FF92F1
:1078F0000F931F93EE24FF2487018091C00087FD22
:1079000017C00894E11CF11C011D111D81E4E8164B
:1079100082E4F8068FE0080780E0180770F3E09132
:107920000401F091050109958091C00087FFE9CF1E
:107930008091C6001F910F91FF90EF9008950E94D3
:10794000763C982F8091C00085FFFCCF9093C600B5
:1079500091362CF490330CF09053892F089597555D
:10796000892F08951F930E949F3C182F0E949F3CCF
:107970001295107F810F1F9108951F93182F882350
:1079800021F00E94763C1150E1F71F9108951F935A
:10799000182F0E94763C803249F0809103018F5F5E
:1079A000809303018530C1F01F9108958091C0003C
:1079B00085FFFCCF84E18093C6008091C00085FFE5
:1079C000FCCF1093C6008091C00085FFFCCF80E102
:1079D0008093C6001F910895E0910401F091050184
:1079E00009951F9108950E94763C803241F0809164
:1079F00003018F5F80930301853081F008958091AA
:107A0000C00085FFFCCF84E18093C6008091C00058
:107A100085FFFCCF80E18093C6000895E0910401CA
:107A2000F09105010995089540E951E08823A1F0FE
:107A30002D9A28EE33E0FA013197F1F721503040CA
:107A4000D1F72D9828EE33E0FA013197F1F7215064
:107A50003040D1F7815061F708953F924F925F9285
:107A60006F927F928F929F92AF92BF92CF92DF924E
:107A7000EF92FF920F931F93CF93DF93000080E16B
:107A80008093C4001092C50088E18093C10086E015
:107A90008093C2005098589A259A81E00E94143D24
:107AA00024E1F22E9EE1E92E85E9D82E0FE0C02ECA
:107AB00010E1B12EAA24A394B1E49B2EA6E58A2E50
:107AC000F2E57F2EE0E26E2E79E4572E63E5462E36
:107AD00050E5352E0E94763C8033B1F18133B9F107
:107AE000803409F46FC0813409F476C0823409F41B
:107AF00085C0853409F488C0803531F1823521F1A3
:107B0000813511F1853509F485C0863509F48DC0BC
:107B1000843609F496C0843709F403C1853709F423
:107B200072C1863709F466C0809103018F5F80932C
:107B30000301853079F6E0910401F0910501099582
:107B40000E94763C803351F60E94F33CC3CF0E94E2
:107B5000763C803249F78091C00085FFFCCFF092DF
:107B6000C6008091C00085FFFCCF9092C600809136
:107B7000C00085FFFCCF8092C6008091C00085FFC9
:107B8000FCCF7092C6008091C00085FFFCCF609250
:107B9000C6008091C00085FFFCCF5092C600809146
:107BA000C00085FFFCCF4092C6008091C00085FFD9
:107BB000FCCF3092C6008091C00085FFFCCFB09210
:107BC000C60088CF0E94763C863808F4BDCF0E945C
:107BD000763C0E94F33C7ECF0E94763C803809F4CC
:107BE0009CC0813809F40BC1823809F43CC1883942
:107BF00009F48FC080E00E94C73C6CCF84E10E94F2
:107C0000BD3C0E94F33C66CF85E00E94BD3C0E94D3
:107C1000F33C60CF0E94763C809306010E94763C44
:107C2000809307010E94F33C55CF0E94763C80333D
:107C300009F41DC183E00E94BD3C80E00E94C73C66
:107C400049CF0E94763C809309020E94763C809343
:107C5000080280910C028E7F80930C020E94763C79
:107C6000853409F415C18091080290910902892B8D
:107C700089F000E010E00E94763CF801E85FFE4FDA
:107C800080830F5F1F4F80910802909109020817AF
:107C9000190788F30E94763C803209F045CF809125
:107CA0000C0280FF01C16091060170910701660F0F
:107CB000771F7093070160930601A0910802B091AD
:107CC00009021097C9F0E8E0F1E09B01AD014E0F09
:107CD0005F1FF999FECF32BD21BD819180BDFA9A17
:107CE000F99A2F5F3F4FE417F50799F76A0F7B1F4B
:107CF00070930701609306018091C00085FFFCCF5F
:107D0000F092C6008091C00085FFFCCFB092C60003
:107D1000E1CE83E00E94C73CDDCE82E00E94C73CFA
:107D2000D9CE0E94763C809309020E94763C8093D3
:107D300008028091060190910701880F991F909386
:107D40000701809306010E94763C853409F4A6C0A1
:107D500080910C028E7F80930C020E94763C8032D0
:107D600009F0B8CE8091C00085FFFCCFF092C6002C
:107D7000609108027091090261157105B9F140E046
:107D800050E080910C02A82FA170B82FB27011C0E2
:107D9000BB2309F45CC0E0910601F0910701319624
:107DA000F0930701E09306014F5F5F4F46175707B7
:107DB000E8F4AA2369F3F999FECF209106013091E6
:107DC000070132BD21BDF89A90B58091C00085FFB2
:107DD000FCCF9093C6002F5F3F4F30930701209355
:107DE00006014F5F5F4F4617570718F38091C00099
:107DF00085FDE5CE8091C00085FFF8CFE0CE81E023
:107E00000E94C73C67CE0E94763C803209F08CCE3F
:107E10008091C00085FFFCCFF092C6008091C00029
:107E200085FFFCCFE092C6008091C00085FFFCCFAB
:107E3000D092C6008091C00085FFFCCFC092C600E2
:107E40008091C00085FFFCCFB092C60043CEE09188
:107E50000601F091070194918091C00085FFFCCF4D
:107E60009093C6009CCF80E10E94C73C33CE0E9415
:107E7000763C0E94763C182F0E94763C112309F430
:107E800083C0113009F484C08FE00E94C73C22CE29
:107E900080910C02816080930C02E5CE80910C02EF
:107EA000816080930C0259CF809107018823880F4D
:107EB000880B8A2180930B02809106019091070123
:107EC000880F991F90930701809306018091080203
:107ED00080FF09C080910802909109020196909359
:107EE000090280930802F894F999FECF1127E091D6
:107EF0000601F0910701C8E0D1E08091080290915D
:107F00000902103091F40091570001700130D9F34B
:107F100003E000935700E89500915700017001308D
:107F2000D9F301E100935700E89509901990009169
:107F3000570001700130D9F301E000935700E89534
:107F40001395103498F011270091570001700130FB
:107F5000D9F305E000935700E895009157000170B0
:107F60000130D9F301E100935700E895329602976A
:107F700009F0C7CF103011F00296E5CF112480919F
:107F8000C00085FFB9CEBCCE8EE10E94C73CA2CD19
:0E7F900085E90E94C73C9ECDF894FFCF80008B
:00000001FF
